:020000040800F2
:1000000020270020D132000815020008170200083E
:100010001B0200081F020008230200080000000065
:10002000000000000000000000000000270200089F
:1000300029020008000000002B0200082D02000821
:10004000EB320008EB320008EB320008EB3200081C
:10005000EB320008EB32000825050008EB320008FF
:10006000EB320008EB32000895050008EB3200087F
:10007000EB320008EB320008EB320008EB320008EC
:10008000EB320008EB320008EB320008EB320008DC
:10009000EB320008EB320008EB320008EB320008CC
:1000A000EB320008EB320008EB320008EB320008BC
:1000B000EB320008EB320008D9270008EB320008C9
:1000C000EB320008EB320008EB320008EB3200089C
:1000D000EB320008571E0008FB1E0008A31F000893
:1000E000EB320008EB320008EB320008EB3200087C
:1000F000EB320008EB320008EB320008EB3200086C
:10010000EB320008EB320008EB320008EB3200085B
:100110004B20000833210008EB320008EB320008C6
:10012000EB320008EB320008EB320008EB3200083B
:10013000DFF80CD006F04AFD0048004745010008F2
:10014000202700201FB500BF0020029003902DA1A2
:1001500003C9CDE900014FF4A06003F04FFE01F0A8
:10016000FBFA002140F2C72000F034FE00F06CF9E9
:100170004FF4E13001F01DFE00F04AF900F083FA7F
:1001800000F006FB00F0DCFC00F016FD00F03AFD8C
:1001900001F0D3FF00F0DFFF642001F01AFB01F053
:1001A00067F801F02DF9082269463E2001F092F827
:1001B00001208DF809008DF80A00082102A801F03D
:1001C000DBF9642001F005FB00F0EAFE05F035FEE6
:1001D00017E00E48D0F8E8024FF49671B0FBF1F248
:1001E00001FB120038B90A48006808B9012000E094
:1001F00000200749086006F072F801F0DFFC06F005
:10020000ACF8E6E76060606060606060302000200D
:10021000B4012242704700BFFEE700BFFEE700BF07
:10022000FEE700BFFEE77047704770477047000069
:100230000CB50020019000906C48006840F48030BC
:100240006A49086000BF6948006800F40030009007
:100250000198401C0190009818B90198B0F5A06F62
:10026000F1D16248006800F4003010B10120009024
:1002700001E0002000900098012843D15C4800680C
:1002800040F010005A4908600846006820F003005A
:1002900008600846006840F0020008605348406863
:1002A000524948600846406848600846406840F443
:1002B000806048600846406820F47C10486008462A
:1002C000406840F4E81048600846006840F08070DC
:1002D000086000BF4548006800F000700028F9D0B1
:1002E0004248406820F003004049486008464068A2
:1002F00040F00200486000BF3C48406800F00C003D
:100300000828F9D10CBD10B5FFF792FF10BD10B54C
:100310003648006840F001003449086008464068EB
:10032000344908403149486008460068324908406D
:100330002E4908600846006820F4802008600846BE
:10034000406820F4FE0048604FF41F008860FFF70B
:10035000DAFF4FF000602949086010BD10B5002198
:1003600000200022214B5B6803F00C0121B104291D
:1003700006D0082928D107E0214B224C236027E032
:100380001F4B204C236023E0184B5B6803F4701074
:10039000164B5B6803F48032022303EB904022B9D2
:1003A000194B4343174C23600DE0104B5B6803F47B
:1003B000003323B1144B4343124C236003E0104B32
:1003C0004343104C236003E00D4B0E4C236000BFF1
:1003D00000BF064B5B68C3F303130C4CE15C094B95
:1003E0001B68CB40074C236010BD0000001002408A
:1003F000002002400000FFF8FFFFF6FE08ED00E0DD
:1004000000127A000000002000093D0004000020D6
:1004100008B50121102003F089FA4FF40050ADF81F
:10042000000010208DF8030003208DF802006946BB
:10043000044802F0BFFF4FF40051024803F067F890
:1004400008BD0000001001401FB50121182003F075
:100450006DFA0120ADF8000048208DF803006946D0
:10046000C44802F0A7FF1020ADF8000048208DF826
:1004700003006946C04802F09DFF4FF48050ADF87C
:10048000000048208DF803006946BA4802F092FF48
:100490004FF40050ADF8000048208DF80300694685
:1004A000B44802F087FF0121084603F03FFA00211B
:1004B000012003F095F80120029000208DF80C0037
:1004C00010208DF80D0001208DF80E0002A804F018
:1004D00047FE0421022003F083F810200290082038
:1004E0008DF80D0002A804F03BFE06208DF80400F4
:1004F00002208DF805008DF8060001208DF8070018
:1005000001A803F080FC0A208DF8040002208DF879
:1005100005008DF8060001208DF8070001A803F002
:1005200072FC1FBD9548006800F0010000282DD026
:1005300090480830006800F0010090B90020904910
:10054000087088700846407828B90846C07810B905
:100550000120C8701AE000208949C87048700873EB
:1005600014E084480830006800F0010070B10020F9
:100570008349C870487008730846007810B9012094
:10058000887003E000207E490870887001207B4954
:10059000086070477948006800F0100000286ED0AD
:1005A0007548806800F01000002868D074484078D2
:1005B000102838DA7248C078012834D17048807821
:1005C00080BB6F484078401C6D49487008464078B1
:1005D00002280BD10846007B40B966480830006805
:1005E00000F4005010B90120087321E064484078FD
:1005F0000C281DD16248007B012819D15D480830C4
:10060000006800F4005098B95D48807B401C5C494C
:1006100088730846807B03280ADD00208873012048
:10062000487305E0FFE70020554948700873C8701B
:100630005348007807281EDA5148C078D8B9504886
:100640008078012817D14E48007801280DDB4948F1
:100650000830006800F4805038B90121484800781B
:10066000C0F106024648001D815445480078401CF0
:100670004349087003E00020414908708870102049
:100680003E490860704708B50121142003F04EF977
:1006900001213C4802F05FFF4FF40040ADF800003C
:1006A00048208DF803006946374802F083FE08BDF4
:1006B00010B5044614B1012034490870334800785D
:1006C00068B320212C4802F008FF58B14FF40041D4
:1006D0002D4802F002FF28B101212B4802F0FDFE57
:1006E00001281CD10A2001F074F800202749087065
:1006F0002021214802F0F1FE08B9012010BD4FF47D
:100700000041214802F0E9FE08B90220F6E7012184
:100710001D4802F0E2FE012815D10320EEE720215A
:10072000154802F0DAFE01280DD1C103164802F087
:10073000D4FE012807D10121134802F0CEFE10B9E2
:100740000120124908700020D8E7002100BF0CE00A
:100750000B48001D405C30B100220948001D425486
:10076000481CC0B27047481CC1B20629F0DB00200B
:10077000F8E70000000C01400010014014040140A3
:10078000B8010020000230000008014014000020E1
:1007900008B50121102003F0C9F80820ADF80000C9
:1007A00010208DF8030003208DF802006946F848F8
:1007B00002F000FE0821F64802F0ABFE08BD012061
:1007C000F449086070470020F2490860704710B58E
:1007D0000446204600F0D9FF10BD0BE0ED4800684C
:1007E00008B9012000E00020EA4908604FF4D07009
:1007F000FFF7EDFFF2E7E8490870704770B5E7488A
:100800000088102806DAE54800780007040E201F4B
:10081000C4B229E0E1480088802806DADF48007881
:100820004006040E601EC4B21EE0DC480088B0F52D
:10083000806F04DAD9480088C0F3870414E0D748F1
:100840000088B0F5805F04DAD4480088C0F307144C
:100850000AE0D2480088B0F5804F04DACF4800881B
:10086000C0F3871400E0FF24CB48007848B1CC489F
:10087000007830B90121CB4803F06AFF142000F062
:10088000A8FFFFF79CFF0021C64803F061FF052089
:1008900000F09FFFFFF797FF0121C24803F058FFC8
:1008A000052000F096FFFFF78AFF0021BD4803F006
:1008B0004FFF052000F08DFFFFF785FF0121B948AC
:1008C00003F046FF052000F084FF002527E0802686
:1008D00021E0B548405D304030B1FFF770FF0021A6
:1008E000B04803F035FF05E0FFF76DFF0121AD488B
:1008F00003F02EFFAA480078012804D14FF4D070ED
:10090000FFF765FF06E0A648007818B94FF40170BC
:10091000FFF75DFF7610002EDBD1681CC5B2A3483F
:1009200000788542D3DBFFF74EFF70BDF0B503467C
:100930000C46154625B1012D48D0022D6FD1F1E0AE
:10094000974E3678012E03D18026974F3E7005E0F2
:10095000934E367816B90026934F3E700026924F7C
:100960007E70BE70FE70042004E088268E4F3E54D8
:10097000461CF0B2042606EB84068642F5DC04220F
:1009800000211BE0802015E05E5C06402EB1864E03
:10099000B65C46F06006844FBE5440105E5C064074
:1009A0002EB1814EB65C46F006067F4FBE54401015
:1009B000561CF2B20028E7D14E1CF1B2A142E1DB95
:1009C000042606EB8406794F3E70B7E0002004E071
:1009D0000026754F3E54461CF0B20428F8DB0A2668
:1009E000714F3E71052004E0AA266F4F3E54461C0D
:1009F000F0B20728F8DB4FF0000C0646471CF8B2AF
:100A0000694F07F806C00646471CF8B2664F07F85C
:100A100006C004EB44060644F2B2014618E080E04A
:100A20004FF0920C0E464F1CF9B25F4F07F806C00C
:100A30004FF0490C0E464F1CF9B25B4F07F806C049
:100A40004FF0240C0E464F1CF9B2574F07F806C062
:100A50009142E5DB002157E05E5C06F080062EB98E
:100A6000514E365C46F040064F4F3E545E5C06F0F9
:100A700040062EB94C4E365C46F008064A4F3E54AE
:100A80005E5C06F020062EB9474E365C46F0010645
:100A9000454F3E54461CF0B25E5C06F010062EB97F
:100AA000414E365C46F020063F4F3E545E5C06F0F9
:100AB00008062EB93C4E365C46F004063A4F3E54CA
:100AC000461CF0B25E5C06F004062EB9364E365C6B
:100AD00046F08006344F3E545E5C06F002062EB9A6
:100AE000314E365C46F010062F4F3E545E5C06F0E9
:100AF00001062EB92C4E365C46F002062A4F3E54B3
:100B0000461CF0B24E1CF1B2A142A5DB4FF0920C94
:100B10000646471CF8B2244F07F806C0234E307033
:100B20000CE000BF002004E01E5C1F4F3E54461C3A
:100B3000F0B2A042F8DB1D4E347000BF00BFF0BD24
:100B400008B50121102002F0F1FE0220ADF80000EE
:100B500010208DF8030003208DF8020069460C4830
:100B600002F028FC02210A4802F0D3FC08BD012053
:100B700008490839086070470020064908390860AC
:100B8000704704480838006890B9012011E000005F
:100B9000001001408C0122421C000020180000209F
:100BA0001B000020002C0140C70100201A0000207B
:100BB00000206D490860704708B50121102002F03F
:100BC000B5FE0121694802F0C6FC0420ADF8000022
:100BD00048208DF803006946654802F0EBFB08BD2C
:100BE00010B561487C38006850B90A2000F0F1FD6A
:100BF0005D487C38006808B9002010BD0120FCE782
:100C00000120FAE708B50121102002F08FFE012033
:100C1000ADF8000010208DF8030003208DF80200CD
:100C20006946534802F0C6FB0121514802F06FFCAF
:100C300008BD10B501214E4802F06BFC10BD10B587
:100C400001214B4802F063FC10BD3EB549A103C928
:100C5000CDE9000100F0EEFD054648480068281A7D
:100C600041F28831884200D23EBD444805600021EF
:100C7000434803F06DFD43A005F0F8FF55208DF8C3
:100C80000000AB208DF8010011208DF80200032137
:100C9000684600F0ECFD0446E0B28DF80800201232
:100CA0008DF809009DF808008DF803009DF80900F3
:100CB0008DF80400002205216846FFF737FEFFF794
:100CC0009DFD00BFD0E710B50446214633A005F0D6
:100CD000CDFF37A005F0CAFF0021294803F038FDF9
:100CE000552039490870AB204870084684700321AC
:100CF00000F0BDFD35490880084600783449087089
:100D00003248008800124870084600782E49C870A2
:100D10002F4840780871002205212B48FFF706FE76
:100D2000FFF76CFD4FF4FA7000F053FDFFF71FFF63
:100D30004FF47A7000F04DFD4FF47A7000F049FDE9
:100D4000642000F046FDFFF717FF4FF4FA7000F043
:100D500040FD4FF4FA7000F03CFDFFF770FF0121F9
:100D6000074803F0F5FC10BD840122420002300068
:100D700000100140434D4F5354454B0020000020CC
:100D8000002C01400D0A434D54323131784120741A
:100D9000782074657374210D0A0000000A0D7465D3
:100DA0007374206E756D203D202532580A0D0000A9
:100DB0000A0D4D4F544F525F494E5F436865636B58
:100DC000206F6B210A0D0000280000202400002065
:100DD0002600002070B588B004460D460121C802E7
:100DE00002F0A4FD0121042002F0A0FD4FF4807068
:100DF000ADF81C0018208DF81F0003208DF81E0090
:100E000007A9614802F0D6FAADF81440ADF81050C9
:100E10000020ADF81600ADF8120004A95B4803F0FD
:100E20002FF97020ADF800000120ADF8020000207D
:100E3000ADF80600ADF808006946544803F05DF9C6
:100E40000121524803F084FC0821504803F0A4FD1E
:100E500001214E4803F070FD01214C4803F06CFC69
:100E6000661C06EBD670C0F34F01484803F0FCFE49
:100E700008B070BDFEB504460D46ADF80440ADF8AF
:100E800000500020ADF80600ADF8020069463F486A
:100E900003F0F6F8661C06EBD670C0F34F013B4832
:100EA00003F0E2FEFEBD10B50021C720FFF7E2FF10
:100EB0003748008800F069FC002140F2C720FFF7A6
:100EC000D9FF0A2000F061FC002140F2A320FFF7C7
:100ED000D1FF3048008800F058FC0021C720FFF700
:100EE000C9FF2B48008800F050FC002140F2C720C9
:100EF000FFF7C0FF0A2000F048FC002140F2A320C9
:100F0000FFF7B8FF2348008800F03FFC0021C7200E
:100F1000FFF7B0FF2048008800F037FC002140F2C6
:100F2000C720FFF7A7FF0A2000F02FFC002140F2A6
:100F3000A320FFF79FFF1948008800F026FC00213E
:100F4000C720FFF797FF1448008800F01EFC00211F
:100F500040F2C720FFF78EFF0A2000F016FC0021A8
:100F600040F2A320FFF786FF0C48008800F00DFC3C
:100F700010BD10B5074C2080054C2180074C228005
:100F8000054C238010BD000000080140002C0140EA
:100F90003200002030000020360000203400002005
:100FA00000B587B001214FF4017002F0BFFC4FF48F
:100FB000004002F01FFC0120ADF8040000208DF875
:100FC000070001A9464802F0F5F9464803F092FEF1
:100FD000002002908DF80C008DF80D004FF4602079
:100FE00004900020059001208DF8180002A93D48CA
:100FF00003F0A7FE01213B4803F0CFFE394803F080
:10100000EEFE00BF374803F0EFFE0028FAD1354866
:1010100003F0F4FE00BF334803F0F5FE0028FAD1D8
:1010200007B000BD10B504460723012221462D4814
:1010300003F01FFF01212B4803F0EFFE00BF022148
:10104000284804F05BF80028F9D0264803F078FF20
:1010500010BD2DE9F04107460C460025002608E0AA
:101060003846FFF7DFFF0544052000F0B2FB701C97
:10107000C6B2A642F4DBB5FBF4F080B2BDE8F08165
:101080002DE9F047044618A005F0F0FD0A2120469E
:10109000FFF7DFFF184908800846018817A005F010
:1010A000E5FD1548008805F034FB814605F036FB68
:1010B00007464FF06632164B05F0B9FA054605F0C3
:1010C00059FB144908600846006805F027FB0546EF
:1010D0002A460B4610A005F0C9FDBDE8F0870000C8
:1010E00000080140002401400D0A4144432074657A
:1010F0007374210D0A000000380000200D0A5041D1
:1011000030B5C4414443D6B53D25640D0A00000006
:1011100066664A3F3C0000200D0A504130B5C4B518
:10112000E7D1B93D2566560D0A00000000BF00BF9B
:1011300000BF00BF00BF00BF00BF00BF00BF00BFB7
:1011400000BF00BF00BF00BF00BF00BF411E89B28B
:10115000081EECD1704708B50121142002F0E6FB0F
:10116000B020ADF8000010208DF8030003208DF8AA
:1011700002006946FC4802F01DF9A021FA4802F07D
:10118000C6F91021F84802F0C4F90121F74802F02D
:10119000E2F94020ADF8000048208DF803006946D0
:1011A000F14802F007F92020ADF8000048208DF842
:1011B00003006946EE4802F0FDF81021EA4802F00B
:1011C000A8F92021E84802F0A4F91021E64802F02D
:1011D0009EF908BD70B5044600252021E24802F0C2
:1011E00098F9002625E004F0800020B18021DE4837
:1011F00002F08DF903E08021DB4802F08AF96006F5
:10120000040E2021D84802F082F900BF00BF680612
:10121000050E4021D44802F060F9012801D1681C74
:10122000C5B22021D04802F074F900BF00BF701C85
:10123000C6B2082ED7DB284670BD10B51021CA48AB
:1012400002F067F900BF4021C74802F046F90128C3
:10125000F9D03020FFF7BEFF00BF4021C24802F0A6
:101260003CF90128F9D01021BF4802F050F910BD17
:1012700010B51021BC4802F04AF90120FFF756FFD3
:101280001021B94802F045F90120FFF74FFF102166
:10129000B54802F03CF92920FFF748FFFFF7CDFFE2
:1012A00010BD70B505460C461021AF4802F031F96B
:1012B00000BF4021AC4802F010F90128F9D02846BF
:1012C000FFF788FF2046FFF785FF1021A64802F0B0
:1012D0001EF970BD2DE9F04105460E46174645F052
:1012E00040081021A04802F014F900BF40219E4898
:1012F00002F0F3F80128F9D04046FFF76BFF002415
:1013000004E0305DFFF766FF601CC4B2BC42F8DB4E
:101310001021954802F0FBF8BDE8F08110B50446B5
:101320001021914802F0F5F800BF40218E4802F0EC
:10133000D4F80128F9D02046FFF74CFF10218A4845
:1013400002F0E5F810BD70B5044644F080051021A8
:10135000854802F0DEF800BF4021834802F0BDF866
:101360000128F9D02846FFF735FF0020FFF732FFAC
:10137000064610217C4802F0CAF8304670BD2DE9BF
:10138000F04105460E46174645F0C0081021764844
:1013900002F0BFF800BF4021734802F09EF8012818
:1013A000F9D04046FFF716FF002405E00020FFF7C4
:1013B00011FF3055601CC4B2BC42F7DB10216A48F3
:1013C00002F0A5F8BDE8F08170B5044644F0C00510
:1013D0001021654802F09DF800BF4021624802F0EC
:1013E0007CF80128F9D02846FFF7F4FE0020FFF72B
:1013F000F1FE064610215C4802F089F8304670BDC7
:1014000010B55C4801780C20FFF74BFF5948417834
:101410000B20FFF746FF574881780C20FFF741FF6C
:101420005448C1780D20FFF73CFF524801790E2047
:10143000FFF737FF4F4841790F20FFF732FF4D4844
:1014400081791020FFF72DFF4A48C1791120FFF75D
:1014500028FF4848017A1220FFF723FF4548417AC8
:101460001320FFF71EFF4348817A1420FFF719FF6E
:101470004048C17A0A20FFF714FF3E48017B15203F
:10148000FFF70FFF3B48417B2120FFF70AFF394858
:10149000817B2220FFF705FF3648C17B1820FFF72C
:1014A00000FF3448017C1920FFF7FBFE3148417CE6
:1014B0001A20FFF7F6FE2F48817C1B20FFF7F1FE74
:1014C0002C48C17C1C20FFF7ECFE2A48017D1D2022
:1014D000FFF7E7FE2748417D2320FFF7E2FE25487E
:1014E000817D2420FFF7DDFE2248C17D2520FFF706
:1014F000D8FE2048017E2620FFF7D3FE1D48417EFE
:101500002920FFF7CEFE1B48817E2C20FFF7C9FE65
:101510001848C17E2D20FFF7C4FE1648017F2E20FB
:10152000FFF7BFFE1348417F0020FFF7BAFE1148C6
:10153000817F0220FFF7B5FE0E48C17F0720FFF72D
:10154000B0FE0C4890F820100820FFF7AAFE0948CA
:1015500090F821100920FFF7A4FE064890F8221009
:101560000620FFF79EFE10BD00080140000230007B
:1015700000100140FC77000870B504460D4629466E
:101580003F20FFF78EFE2A4621463F20FFF7A2FEAE
:101590003520FFF7C3FE00BF20215A4801F09DFF10
:1015A0000028F9D000BF2021564801F096FF0128FD
:1015B000F9D03B20FFF7B2FE70BD10B53420FFF725
:1015C000ADFE10BDF8B506460D4628788006070E1C
:1015D0003420FFF7A3FE022000F0D7F808E0022035
:1015E00000F0D3F8781EC7B2012F01DA0020F8BD51
:1015F0002021444801F071FF0128F0D03B20FFF783
:10160000E3FE00F07F00F8B13F20FFF79CFE0446A8
:101610002878A04212DB224631463F20FFF7AFFE7A
:101620002C70022269463F20FFF7A9FE3A20FFF7FF
:1016300075FE9DF8010000F08000D8E72C703A207C
:10164000FFF76CFE0020D2E70020D0E70EB508209F
:10165000029000200090019002A96846FFF7B2FFB7
:1016600010B19DF801000EBD0020FCE730B585B03B
:10167000002004900024029003900090019094B9FF
:1016800000F0D8F8054620480068281A41F2883151
:10169000884201D205B030BD1B48056001208DF89D
:1016A0000900012400BF012C10D10021174803F0CC
:1016B0004FF817A005F0DAFA082102A8FFF75CFF3F
:1016C000FF208DF809008DF80A00002408200490FE
:1016D00004A96846FFF776FF90B19DF80100012844
:1016E00009D10021094803F033F80EA005F0BEFA35
:1016F00013A005F0BBFAFF208DF801008DF8020061
:1017000000BFC7E70010014040000020002C01404E
:101710000A0D434331313078207478207465737436
:10172000210A0D000A0D43433131307820727820B0
:101730007375636365737366756C210A0D00000031
:101740000A0D0A0D74657374206E756D203D20328C
:10175000320A0D0A0D00000010B56FF0040002F00F
:101760009CFB364800683649B0FBF1F035490870FB
:101770000846007800EB4001C1EBC0104FF6FF7146
:1017800001EAC0003049088010BD01462D4A127898
:101790004A434FF0E0235A6100229A611A461269C7
:1017A00042F001021A6100BF4FF0E022106900F020
:1017B00001021AB100F48032002AF5D04FF0E02285
:1017C000126922F001024FF0E0231A6100229A61AF
:1017D000704701461C4A12884A434FF0E0235A6181
:1017E00000229A611A46126942F001021A6100BF92
:1017F0004FF0E022106900F001021AB100F48032CB
:10180000002AF5D04FF0E022126922F001024FF0D9
:10181000E0231A6100229A61704710B50446204601
:10182000FFF7D7FF0948D0F8E802401C0749C1F884
:10183000E80210BD0548D0F8E8027047000000201B
:1018400000127A00440000204600002030200020D2
:10185000014600BF704700BFFE4A128802F04002F6
:10186000002AF9D0C2B2FB4B1B1D1A80704730B55D
:1018700002460B464FF6FF70002112E0555C6840AF
:1018800000240AE000F0010525B140104AF20105EC
:10189000684000E04010651CECB2082CF2DB4D1CE7
:1018A000E9B29942EADB30BD10B54FF40072EA4963
:1018B000EA4805F08AFE4FF40072E949E94805F06C
:1018C00084FE4FF40072E849E84805F07EFE4FF4CC
:1018D0000072E749E74805F078FE4FF40072E649E8
:1018E000E64805F072FE4FF48062E549E54805F0F0
:1018F0006CFE4FF40072E449E44805F066FE4FF4D4
:101900000072E349E34805F060FE4FF40072E249DB
:10191000E24805F05AFE4FF40072E149E14805F053
:1019200054FE0020E049087010BD08B540F2255172
:10193000DE4802F01FFA88B1DC4802F09BF9C0B221
:10194000009001226946C54805F0D4FE2021D74801
:1019500002F007FA2021D54802F036FA08BD08B592
:1019600040F22551D24802F005FA88B1D04802F081
:1019700081F9C0B2009001226946BA4805F0BAFE6A
:101980002021CB4802F0EDF92021C94802F01CFAD1
:1019900008BD08B540F22551C64802F0EBF988B100
:1019A000C44802F067F9C0B2009001226946AF480E
:1019B00005F0A0FE2021BF4802F0D3F92021BD4848
:1019C00002F002FA08BD08B540F22551BA4802F00B
:1019D000D1F988B1B84802F04DF9C0B200900122A7
:1019E0006946A44805F086FE2021B34802F0B9F903
:1019F0002021B14802F0E8F908BD08B5954802F089
:101A000039F9C0B20090012269469C4805F072FE87
:101A10002021904802F0A5F920218E4802F0D4F947
:101A200008BD38B501226946964805F009FE04460E
:101A3000002C05DD9DF80010864802F017F905E03E
:101A4000002240F22771834802F0AFF840F227717C
:101A5000804802F086F940F227717E4802F0B4F91E
:101A600038BD2DE9F04180460E461546002400277A
:101A70008D480078062879D2DFE800F0032A374441
:101A80005163022D1FDB3078FF2808D17078AA2817
:101A900005D1012084490870A01CC4B217E00FE0F2
:101AA0006D1E781CC7B2781E305CFF2808D1F05D2F
:101AB000AA2805D101207C490870A01CC4B201E00D
:101AC000022DEDDA03E00020774908704FE000BFF7
:101AD000032D05DB022074490870601CC4B203E0CA
:101AE00000207149087042E000BF042D05DB03208F
:101AF0006D490870601CC4B203E000206A49087098
:101B000035E000BF052D05DB042067490870601C27
:101B1000C4B203E000206449087028E000BF601EE2
:101B2000305C2044A84207DC05205F490870601E35
:101B3000305C2044C4B203E000205B49087016E02A
:101B400000BFA01C85420DDB002057490870A01C77
:101B5000C4B2F1192246404604F025F93819BDE80F
:101B6000F08103E000205049087000E000BF00BF92
:101B70003846F4E770B504460D462A4621463D48EE
:101B800005F03CFD70BD70B504460D462A46214661
:101B9000364805F033FD70BD70B504460D462A4643
:101BA0002146304805F02AFD70BD70B504460D464B
:101BB0002A462146294805F021FD70BD10B54FF495
:101BC00000713E48FFF7F1FF3D49086008463B4978
:101BD0000268344805F08EFD4FF4007237493148F1
:101BE00005F00CFD364908600846344902680520B6
:101BF000FFF737FF33490860314800680B461B6820
:101C0000C21A2E480B461B68C118264805F072FD03
:101C10004FF400712948FFF7BFFF294908600846C3
:101C2000264902681D4805F065FD4FF400722349FE
:101C30001A4805F0E3FC2249086008461F4902687B
:101C40000420FFF70EFF1F4908601D4800680B467F
:101C50001B6839E00038014018020020080200200B
:101C60003806002028060020580A0020480A0020D4
:101C7000780E0020680E00209812002088120020A4
:101C8000A81400209814002088100020781000204C
:101C9000680C0020580C002048080020380800205C
:101CA00028040020180400204C00002000500040B0
:101CB000004C00400048004000440040301E00201E
:101CC0006400002060000020C21AFE480B461B681A
:101CD000C118FD4805F00EFD4FF40071F948FFF7FB
:101CE00052FFFA4908600846F6490268F84805F0CC
:101CF00001FD4FF40072F349F54805F07FFCF3490C
:101D000008600846EF4902680320FFF7AAFEF14980
:101D10000860EE4800680B461B68C21AE9480B468B
:101D20001B68C118EA4805F0E5FC4FF40071E5486E
:101D3000FFF720FFE54908600846E2490268E648E7
:101D400005F0D8FC4FF40072DE49E34805F056FC7C
:101D5000DE4908600846DB4902680220FFF781FE81
:101D6000DC490860D94800680B461B68C21AD54890
:101D70000B461B68C118D84805F0BCFC10BD70B5F7
:101D800004460D462A462146D44805F059FC70BD4C
:101D900070B504460D462A462146D14805F0CEFCD2
:101DA0000646012240F22771CE4801F0FEFE304681
:101DB00070BD10B586B00446012144F2040001F064
:101DC000B5FD4FF40070ADF8140003208DF8160037
:101DD00018208DF8170005A9C34801F0EBFA4FF45D
:101DE0008060ADF8140004208DF8170005A9BE48E6
:101DF00001F0E0FA25208DF8000003208DF80100A5
:101E00008DF8020001208DF80300684601F0FBFF09
:101E100001940020ADF80800ADF80A00ADF80C0000
:101E2000ADF810000C20ADF80E0001A9AD4801F08E
:101E300024FE012240F22551AA4801F0B6FE0122FB
:101E400040F22771A74801F0B0FE0121A54801F03A
:101E5000A0FE06B010BD10B5FFF7E3FD10BD10B534
:101E600086B004460121480401F06DFD01210420E3
:101E700001F05CFD0420ADF8140003208DF816007D
:101E800018208DF8170005A9974801F093FA08204B
:101E9000ADF8140004208DF8170005A9924801F050
:101EA00089FA26208DF8000003208DF80100042017
:101EB0008DF8020001208DF80300684601F0A3FFB1
:101EC00001940020ADF80800ADF80A00ADF80C0050
:101ED000ADF810000C20ADF80E0001A9834801F008
:101EE000CCFD012240F22551804801F05EFE012127
:101EF0007E4801F04EFE06B010BD10B5FFF763FD41
:101F000010BD10B586B004460121880401F01BFD08
:101F10000121082001F00AFD4FF48060ADF81400A3
:101F200003208DF8160018208DF8170005A97048B9
:101F300001F040FA4FF40060ADF8140004208DF871
:101F4000170005A96A4801F035FA27208DF800002E
:101F500003208DF8010005208DF8020001208DF886
:101F60000300684601F04FFF01940020ADF808001F
:101F7000ADF80A00ADF80C00ADF810000C20ADF87B
:101F80000E0001A95B4801F078FD012240F22551C5
:101F9000584801F00AFE0121564801F0FAFD06B04A
:101FA00010BD10B5FFF7F5FC10BD10B586B00446A6
:101FB0000121C80401F0C7FC0121102001F0B6FC8A
:101FC0004FF48060ADF8140003208DF8160018203F
:101FD0008DF8170005A9484801F0ECF94FF40060AE
:101FE000ADF8140004208DF8170005A9424801F04F
:101FF000E1F934208DF8000003208DF8010006205F
:102000008DF8020001208DF80300684601F0FBFE08
:1020100001940020ADF80800ADF80A00ADF80C00FE
:10202000ADF810000C20ADF80E0001A9334801F006
:1020300024FD012240F22551304801F0B6FD012176
:102040002E4801F0A6FD06B010BD10B5FFF787FCC5
:1020500010BD10B586B004460121080501F073FCDF
:102060000121302001F062FC4FF48050ADF81400E3
:1020700003208DF8160018208DF8170005A91E48BA
:1020800001F098F90420ADF814008DF8170005A9A7
:102090001B4801F08FF935208DF8000003208DF8E2
:1020A000010007208DF8020001208DF8030068462A
:1020B00001F0A9FE01940020ADF80800ADF80A0077
:1020C00020E00000301E00203808002064000020BE
:1020D000580C00206000002078100020881200209A
:1020E00098140020003801400008014000440040DE
:1020F000000C01400048004000100140004C00402E
:1021000000140140ADF80C00ADF810000C20ADF843
:102110000E0001A9134801F0B0FC012240F2255144
:10212000104801F042FD01210E4801F032FD06B0D9
:1021300010BD10B5FFF7F9FB10BD10B5FFF7B4FBEC
:102140004FF4E130FFF78BFE4FF4E130FFF7D9FE9B
:102150004FF4E130FFF729FF4FF4E130FFF779FF4B
:1021600010BD00000050004010B58CB004461E2386
:102170000BAA03A9204600F0AFFE0090009810B112
:1021800001200CB010BD9DF82C00044400200B90E1
:102190000EE040489DF82C2050F8221003A800F0D3
:1021A00003FE00B908E09DF82C00401CC0B20B9063
:1021B0009DF82C000728ECD300BF9DF82C000728C1
:1021C00063D2DFE800F004053C5E6564630000BF95
:1021D00031A004F04BFD31A004F048FD3FA004F015
:1021E00045FD4EA004F042FD5CA004F03FFD6BA055
:1021F00004F03CFD79A004F039FD86A004F036FD22
:102200008BA004F033FD90A004F030FD94A004F006
:102210002DFD99A004F02AFD9EA004F027FDA4A0A6
:1022200004F024FDB0A004F021FDBDA004F01EFDCB
:10223000C8A004F01BFDD4A004F018FD9AE216A07B
:1022400004F014FDE0A004F011FD00200B900EE05E
:10225000ED4800689DF82C2000EBC2004168EBA01F
:1022600004F004FD9DF82C00401CC0B20B90E64821
:10227000007D9DF82C108842EADC07A004F0F6FCF3
:1022800078E205A004F0F2FCC4E171E245E219E253
:10229000ECE10000680000200D0A00002D2D2D2D1E
:1022A0002D2D2D2D2D2D2D2D2D2D2D2D2D2D2D2D5E
:1022B0002D2D2D2D55534D4152542056332E312D59
:1022C0002D2D2D2D2D2D2D2D2D2D2D2D2D2D2D2D3E
:1022D0002D2D2D2D2D2D2D200D0A0000202020200C
:1022E00055534D415254CAC7D3C9414C49454E5428
:1022F000454BBFAAB7A2B5C4D2BBB8F6C1E9C7C99E
:10230000B5C4B4AEBFDAB5F7CAD4BBA5BDBBD7E977
:10231000BCFE2CCDA8B9FD200D0A0000CBFC2CC4BE
:10232000E3BFC9D2D4CDA8B9FDB4AEBFDAD6FACADC
:10233000D6B5F7D3C3B3CCD0F2C0EFC3E6B5C4C8AB
:10234000CEBACEBAAFCAFD2CB2A2D6B4D0D02ED25D
:10235000F2B4CB2CC4E3BFC90D0A0000D2D4CBE643
:10236000D2E2B8FCB8C4BAAFCAFDB5C4CAE4C8EB7F
:10237000B2CECAFD28D6A7B3D6CAFDD7D6283130EB
:102380002F3136BDF8D6C629A1A2D7D6B7FBB4AE39
:10239000A1A2BAAFCAFDC8EB0D0A0000BFDAB5D8DA
:1023A000D6B7B5C8D7F7CEAAB2CECAFD292CB5A5E7
:1023B000B8F6BAAFCAFDD7EEB6E0D6A7B3D631307D
:1023C000B8F6CAE4C8EBB2CECAFD2CB2A2D6A7B307
:1023D000D6BAAFCAFDB7B5200D0A0000BBD8D6B536
:1023E000CFD4CABE2ED0C2D4F6B2CECAFDCFD4CA84
:1023F000BEBDF8D6C6C9E8D6C3B9A6C4DC2CD0C2C7
:10240000D4F6BDF8D6C6D7AABBBBB9A6C4DC2E0D80
:102410000A000000BCBCCAF5D6A7B3D63A777777D6
:102420002E6F70656E6564762E636F6D0D0A000009
:1024300055534D415254D3D037B8F6CFB5CDB3C371
:10244000FCC1EE3A0D0A00003F3A20202020202057
:10245000BBF1C8A1B0EFD6FAD0C5CFA20D0A0000DB
:1024600068656C703A202020BBF1C8A1B0EFD6FAA5
:10247000D0C5CFA20D0A00006C6973743A202020E9
:10248000BFC9D3C3B5C4BAAFCAFDC1D0B1ED0D0A3F
:102490000A00000069643A2020202020BFC9D3C36D
:1024A000BAAFCAFDB5C44944C1D0B1ED0D0A0A00A6
:1024B0006865783A20202020B2CECAFD3136BDF8BA
:1024C000D6C6CFD4CABE2CBAF3B8FABFD5B8F12B52
:1024D000CAFDD7D6BCB4D6B4D0D0BDF8D6C6D7AA1C
:1024E000BBBB0D0A0A0000006465633A202020206F
:1024F000B2CECAFD3130BDF8D6C6CFD4CABE2CBAD2
:10250000F3B8FABFD5B8F12BCAFDD7D6BCB4D6B450
:10251000D0D0BDF8D6C6D7AABBBB0D0A0A000000B2
:1025200072756E74696D653A312CBFAAC6F4BAAF84
:10253000CAFDD4CBD0D0BCC6CAB13B302CB9D8B1BF
:10254000D5BAAFCAFDD4CBD0D0BCC6CAB13B0D0AF8
:102550000A000000C7EBB0B4D5D5B3CCD0F2B1E0DF
:10256000D0B4B8F1CABDCAE4C8EBBAAFCAFDC3FB68
:10257000BCB0B2CECAFDB2A2D2D4BBD8B3B5BCFCFB
:10258000BDE1CAF82E0D0A002D2D2D2D2D2D2D2D3E
:102590002D2D2D2D2D2D2D2D2D2D2D2D2D2D2D2D6B
:1025A0002D2D414C49454E54454B2D2D2D2D2D2D76
:1025B0002D2D2D2D2D2D2D2D2D2D2D2D2D2D2D2D4B
:1025C0002D2D2D200D0A00002D2D2D2D2D2D2D2DE5
:1025D0002D2D2D2D2D2D2D2D2D2D2D2D2D2D2D2D2B
:1025E0002DBAAFCAFDC7E5B5A52D2D2D2D2D2D2D4D
:1025F0002D2D2D2D2D2D2D2D2D2D2D2D2D2D2D2D0B
:102600002D2D2D2D200D0A00A400002025730D0A6C
:1026100000000000F1A004F029FB00200B901AE05C
:10262000FE4909689DF82C2001EBC20101AB02AA0A
:10263000486803A900F076FCF84800689DF82C1063
:1026400050F8312003A9F6A004F010FB9DF82C00EF
:10265000401CC0B20B90F148007D9DF82C108842C0
:10266000DEDCAFF2CC3004F001FB83E0AFF2D83017
:1026700004F0FCFA0BAA03A9204600F02FFD9DF8F8
:102680002C00C8B9694603A800F0C1FB0B909DF867
:102690002C0020B9E7A0009904F0E8FA0EE09DF8BC
:1026A0002C00042801D002206BE5E5A004F0DEFA3E
:1026B0000120DA49C87501E0022062E5DFA004F0DC
:1026C000D5FA57E0DDA004F0D1FA0BAA03A9204601
:1026D00000F004FD9DF82C00C8B9694603A800F07D
:1026E00096FB0B909DF82C0020B9DAA0009904F01D
:1026F000BDFA0EE09DF82C00042801D0022040E530
:10270000D7A004F0B3FA0020C449C87501E0022044
:1027100037E5CAA004F0AAFA2CE0C8A004F0A6FA93
:102720000BAA03A9204600F0D9FC9DF82C00C8B9DB
:10273000694603A800F06BFB0B909DF82C0078B95C
:10274000B649009881F8EC00084690F8EC0018B102
:10275000C8A004F08BFA07E0CDA004F087FA03E0EC
:1027600002200EE502200CE5B4A004F07FFA01E09F
:10277000012006E500BF002003E5CC48008820F0DA
:102780000100CA4908804FF6FF70C8491C31088013
:102790000020C64914310880A049C1F8F0007047F4
:1027A000C248008800F0010040B19C48D0F8F00019
:1027B0004FF6FF7108449949C1F8F0009748D0F8E6
:1027C000F000BA491431098808449449C1F8F0006E
:1027D0000846D0F8F000704710B5B448008800F003
:1027E000010058B18D49086980470020AF49143174
:1027F00008804FF47A70AD491C310880AB480088DE
:1028000020F00100A949088010BD7FB505460C469F
:102810000121042001F097F8ADF80850ADF804400C
:102820000020ADF80A00ADF8060001A99F48103855
:1028300001F026FC012241219C48103801F097FF4D
:102840001E208DF8000003208DF801008DF8020095
:1028500001208DF80300684601F0D5FA0121934864
:10286000103801F069FF7FBD10B5044604EBC400C9
:1028700000EB04100122C2EB800081B24FF47A70A9
:10288000FFF7C3FF01206549C87510BD30B595B08D
:10289000054613AB12AA09A9284600F043FB0446DB
:1028A00014B1204615B030BD0020149026E05B49DD
:1028B00009689DF8502001EBC20113AB11AA4868CA
:1028C00001A900F02FFB04460CB12046EAE709A954
:1028D00001A800F069FA60B99DF844009DF848101D
:1028E000884201DD0220DDE79DF850004B498875E4
:1028F0000AE09DF85000401CC0B214904748007D8B
:102900009DF850108842D2DC00BF4448007D9DF8FD
:102910005010884201D10420C4E714A9284600F0D1
:102920004EFC04460CB12046BCE79DF850003B49E4
:1029300048750020B6E72DE9F0419AB000263748E7
:10294000847D007DA04202DC1AB0BDE8F0813349ED
:10295000096801EBC40106AB07AA486808A900F0A2
:10296000E1FA08A952A004F081F90025BAE02B4849
:10297000008B0121A9400840D8B122214EA004F0CB
:1029800075F9284600F00EFC2449243147183946D1
:102990004AA004F06BF9222147A004F067F9284609
:1029A00000F000FC1D492431084410A941F825001D
:1029B0008EE0284600F0F6FB18492431085810A98B
:1029C00041F825001548C07D30B910A850F82510F1
:1029D0003BA004F04BF97BE074E000002D2D2D2D81
:1029E0002D2D2D2D2D2D2D2D2D2D2D2D2D2D2D2D17
:1029F0002D2D2D2D2DBAAFCAFD204944202D2D2D72
:102A00002D2D2D2D2D2D2D2D2D2D2D2D2D2D2D2DF6
:102A10002D2D2D2D2D2D2D2D200D0A00A400002053
:102A200025732069642069733A0D0A3058253038BF
:102A3000580D0A004845583A305825580D0A0000EC
:102A40003136BDF8D6C6B2CECAFDCFD4CABE210D2E
:102A50000A0000004445433A256C750D0A00000049
:102A60003130BDF8D6C6B2CECAFDCFD4CABE210D14
:102A70000A00000052756E2054696D652043616C38
:102A800063756C6174696F6E204F4E0D0A00000013
:102A900052756E2054696D652043616C63756C617D
:102AA00074696F6E204F46460D0A00001008004002
:102AB0000D0A25732800000025630000257300001F
:102AC000256C750010A850F8251095A004F0CEF8DC
:102AD0009DF81C00401EA84202D093A004F0C6F846
:102AE000681CC5B29DF81C008542FFF640AF8FA060
:102AF00004F0BCF8FFF741FE8D48407D0B280DD255
:102B0000DFE800F0060D151E27323F4E5F7287008A
:102B10008749096851F834008047064690E0844AA6
:102B2000126852F8341010988847064688E0804BA7
:102B30001B6853F83420DDE91001904706467FE01A
:102B40007B4F3F6857F8343010A807C898470646AF
:102B500076E0DFF8DCC1DCF800C05CF8347010A867
:102B60000FC8B84706466BE01498DFF8C4C1009060
:102B7000DCF800C05CF8347010A80FC8B8470646EF
:102B80005EE0DDE91401DFF8A8C1CDE90001DCF861
:102B900000C05CF8347010A80FC8B84706464FE074
:102BA000DDE914121698DFF888C1CDE90012029011
:102BB000DCF800C05CF8347010A80FC8B8470646AF
:102BC0003EE0DDE91423DDE91610DFF864C1CDE94C
:102BD0000023CDE90210DCF800C05CF8347010A8C6
:102BE0000FC8B84706462BE0DDE91632189915984C
:102BF000CDE90232049101901498DFF834C10090BD
:102C0000DCF800C05CF8347010A80FC8B84706465E
:102C100016E0DDE91623DDE91810CDE90223CDE940
:102C20000410DDE91401DFF808C1CDE90001DCF88A
:102C300000C05CF8347010A80FC8B847064600BF43
:102C400000BFFFF7ADFD9DF8180001280CD13848F2
:102C5000C07D20B9314637A004F008F807E03146BE
:102C600036A004F003F802E033A003F0FFFF304881
:102C700090F8EC0088B12E48D0F8F0000A21B0FBA3
:102C8000F1F201FB12072A48D0F8F000B0FBF1F88E
:102C90003A4641462CA003F0E9FF00BF54E670B568
:102CA0003148008800F40040002833D02E480578D1
:102CB00000202E4948551E4881682C488847044604
:102CC0001CB91B49C868804721E02848FFF74CFA27
:102CD0000546012D00D02C46CCB1012C06D0022C8B
:102CE00008D0032C0AD0042C10D10BE020A003F054
:102CF000BDFF0BE021A003F0B9FF07E022A003F025
:102D0000B5FF03E023A003F0B1FF00BF00BF002028
:102D10001549088070BD014608687047016070471A
:102D200030582558000000002C0000002900000049
:102D3000A40000203D256C753B0D0A003D30582550
:102D4000583B0D0A0000000046756E6374696F6E93
:102D50002052756E2054696D653A25642E253164C4
:102D60006D730D0A0000000056000020481A002074
:102D7000BAAFCAFDB4EDCEF3210D0A00B2CECAFD42
:102D8000B4EDCEF3210D0A00B2CECAFDCCABB6E055
:102D9000210D0A00CEB4D5D2B5BDC6A5C5E4B5C4D3
:102DA000BAAFCAFD210D0A0002460AE010780B787E
:102DB000984201D001207047107800B902E0521CFF
:102DC000491CF3E700BF0020F5E706E002780A702F
:102DD000027802B902E0401C491CF7E700BF7047C7
:102DE0000146002005E00A7802B903E0421CD0B297
:102DF000491CF8E700BF704710B50246012000E00B
:102E000050430B1EA1F10104E1B2F9D110BD2DE92F
:102E1000F04307460E4600254FF00A083C460020C6
:102E200030601FE02078392802DC207830280ADA68
:102E30002078462802DC2078412804DA20785828B7
:102E400009D1012D07D12078412801DB4FF010086E
:102E5000681CC5B205E0207800B904E00120BDE897
:102E6000F083641CDEE700BF3C46B8F1100F0FD1C1
:102E7000032D01DA0220F2E72078302806D16078AD
:102E8000582803D1A41CA81EC5B204E00320E6E71D
:102E90000DB90420E3E71BE00DB1681EC5B2207830
:102EA000392806DC2078302803DB2078A0F13009AF
:102EB00002E02078A0F1370929464046FFF79CFF41
:102EC000316809FB00103060641C207800B900E014
:102ED000E2E700BF0020C2E710B5044600201070F2
:102EE0000BE020780870641C491C1078401C10709E
:102EF0001078984201DB012010BD2078202802D0F4
:102F000020780028EDD10020087000BFF4E70146CA
:102F1000491C00E0491C0878202801D10029F9D17A
:102F2000087870472DE9FF4F85B080468946002715
:102F3000002004900390012002904FF0000B002528
:102F400044461DE02078202816D005F07F00052893
:102F500012DA0DB945F0800505F07F00042803D191
:102F600020782A2800D00EE0207805F07F010DF8A7
:102F70000100681CC5B202E0852D00D103E0641C8D
:102F800020780028DED100BF8DB1002005F07F0140
:102F90000DF80100CBA16846FFF706FF18B9002124
:102FA0000898017002E001210898017000254FF097
:102FB000000A444614E0641C0AF1010000F0FF0A14
:102FC0002078202802D020782A2809D12046FFF72F
:102FD0009EFF0646282E03D02A2E01D0CDF810A041
:102FE0002078282802D020780028E4D1444604988C
:102FF00010B10498401C04444FF0000A002654E02D
:10300000207810B94FF0010A50E02078282803D129
:1030100016B9781CC7B213E02078292808D13EB928
:1030200017B1781EC7B201E04FF0010A47B93DE081
:103030002078222804D10EB9012000E000200646A5
:1030400047B9207820282FD0207889F8000009F18E
:10305000010929E020782C2804D101200290681C65
:10306000C5B214E02078202811D0207828280ED06E
:103070004DB9BBF1050F06DA20780DF80B000BF106
:10308000010000F0FF0B0298401CC0B20290012F1B
:103090000AD10298022807D10298401CC0B20290BF
:1030A0000398401CC0B20390641CA9E700BF0398BA
:1030B000012809D100200DF80B0082A16846FFF716
:1030C00073FE08B900200390079903980870002048
:1030D00089F80000504609B0BDE8F08FF0B503460E
:1030E0001546002000220026002455E01F782C2FD2
:1030F00001D104B901221F78292F01D01F780FB9FF
:1031000004B94AE0002E34D11F78302F02DB1F783B
:10311000392F11DD1F78612F02DB1F78662F0BDD41
:103120001F78412F02DB1F78462F05DD1F78582FAF
:1031300002D01F78782F0CD102B12EE01F78612FBA
:1031400003DB1F78203F0F7001E01F780F70491CD0
:103150001FE01F78222F04D102B11EE001260124B6
:1031600017E01F78202F14D01F782C2F11D0FF26A6
:1031700013E01F78222F00D1002402B10DE044B1EA
:103180001F785C2F02D15B1C471CF8B21F780F70B0
:10319000491C471CF8B25B1CA8E700BF00270F7052
:1031A0002E70F0BD02460020002105E0474B5B5C1D
:1031B0000344D8B24B1CD9B29142F7DB70472DE9DA
:1031C000F043B5B005460F460024002604E0002178
:1031D0003E488155701CC6B20A2EF8DB06E06D1C15
:1031E000287818B9012035B0BDE8F0832878282860
:1031F000F5D16D1C61E034AA69462846FFF76EFFE1
:10320000064635449DF8D00020B1012827D0FF287C
:103210004CD149E09DF8000000B333A96846FFF7A0
:10322000F6FD06460EB10220DDE72046FFF7BAFFA5
:1032300026490A31339A0A50A1F12400008B01215A
:10324000A140884321491A39088304211F480155A8
:10325000601CC4B20A2C01DD0320C4E726E06846E6
:10326000FFF7BEFD401C00F0FF082046FFF79AFF65
:1032700016490A3100EB010949466846FFF7A5FDEA
:1032800012481A38018B0120A040014388B20F492F
:103290001A3908830D4800F80480601CC4B20A2C57
:1032A00001DD03209FE701E002209CE700BF2878B2
:1032B000292801D0287800B900E09CE700BF3C70C5
:1032C000002090E7766F696400000000BE000020D7
:1032D0000648804706480047FEE7FEE7FEE7FEE7B0
:1032E000FEE7FEE7FEE7FEE7FEE7FEE70F03000866
:1032F0003101000810B50446CC48844208D10121B0
:10330000042000F02DFB0021042000F029FB46E002
:10331000C748844208D10121082000F021FB002188
:10332000082000F01DFB3AE0C248844208D1012188
:10333000102000F015FB0021102000F011FB2EE002
:10334000BD48844208D10121202000F009FB002162
:10335000202000F005FB22E0B848844208D101217A
:10336000402000F0FDFA0021402000F0F9FA16E0BC
:10337000B348844208D10121802000F0F1FA0021F5
:10338000802000F0EDFA0AE0AE48844207D1012126
:10339000801500F0E5FA0021A01500F0E1FA10BD5B
:1033A00010B50121084600F0DBFA0021012000F0F1
:1033B000D7FA10BD2DE9F041024600250026002075
:1033C00000230024002791F803C00CF00F0591F8AA
:1033D00003C00CF0100CBCF1000F03D091F802C038
:1033E0004CEA050591F800C0BCF1000F31D014681B
:1033F00000202BE04FF0010C0CFA00F3B1F800C0F4
:103400000CEA03069E4220D183004FF00F0C0CFA09
:1034100003F7BC4305FA03FC4CEA040491F803C02B
:10342000BCF1280F06D14FF0010C0CFA00FCC2F8D9
:1034300014C00AE091F803C0BCF1480F05D14FF069
:10344000010C0CFA00FCC2F810C0401C0828D1D3B3
:103450001460B1F800C0BCF1FF0F34DD54680020E7
:103460002EE000F1080C4FF0010808FA0CF3B1F857
:1034700000C00CEA03069E4221D183004FF00F0CDE
:103480000CFA03F7BC4305FA03FC4CEA040491F878
:1034900003C0BCF1280F05D100F1080C08FA0CF8A4
:1034A000C2F8148091F803C0BCF1480F07D100F1B5
:1034B000080C4FF0010808FA0CF8C2F81080401C04
:1034C0000828CED35460BDE8F0814FF6FF7101802B
:1034D000022181700421C170704702460020936868
:1034E0000B400BB1012000E00020704701468868C6
:1034F00080B2704702460020D3680B400BB1012018
:1035000000E0002070470146C86880B27047016142
:103510007047416170470AB1016100E04161704745
:10352000C16070474FF480320A43826181618261D9
:1035300082698269704702460020434B18684FF643
:103540008073184040EA021008433F4B18607047F0
:103550003E49C8617047F0B50A46002300240021A7
:10356000002500F00046B6F1004F02D1364EF16959
:1035700001E0354E7168C0F3034583B200F4401694
:10358000B6F5401F08D121F070612F4E766826F005
:1035900070662D4F7E6012E000F48016B6F5801F35
:1035A00006D1032606FA05F4A14341F0706106E056
:1035B000460D360103FA06F6B14341F0706122B1BF
:1035C000460D360103FA06F6314300F00046B6F127
:1035D000004F02D11C4EF16101E01B4E7160F0BD45
:1035E00030B500228B071C0F0F2303FA04F2164B91
:1035F00008338C1053F824309343134C08348D1047
:1036000044F8253023468C1053F824308C07240FBF
:1036100000FA04F423430C4C08348D1044F8253090
:1036200030BD0A49DC3108607047000000080140E5
:10363000000C01400010014000140140001801403E
:10364000001C014000200140000001400000204219
:10365000DF48006840F00100DD4908600846406826
:10366000DC490840DA49486008460068DA49084001
:10367000D74908600846006820F4802008600846A2
:10368000406820F4FE0048604FF41F0088607047D7
:10369000CF49096821F48031CD4A1160114609688B
:1036A00021F480211160B0F5803F03D0B0F5802F68
:1036B0000ED106E0C649096841F48031C44A116060
:1036C00007E0C349096841F4A021C14A116000E044
:1036D00000BF00BF704710B5014600220023002044
:1036E0004A11012A02D1BA4C236806E0022A02D10B
:1036F000B74C236A01E0B64C636A01F01F02012453
:1037000094401C400CB1012000E0002010BD38B5F1
:10371000002000900024002500BF3120FFF7DBFFD0
:1037200005460098401C00900098B0F5A06F01D0AD
:10373000002DF2D03120FFF7CEFF08B1012400E0C8
:103740000024204638BD01460020A14A106820F020
:10375000F80040EAC10010607047A0490860704757
:10376000024600209A4B586820F47C1042EA01037C
:103770001843974B58607047984908667047014650
:103780000020934A506820F00300084350607047BF
:103790008F48406800F00C007047014600208C4ABA
:1037A000506820F0F0000843506070470146002048
:1037B000874A506820F4E060084350607047014633
:1037C0000020834A506820F4605040EAC1005060F5
:1037D000704729B17E4A527A02437D4B5A7204E007
:1037E0007B4A527A82437A4B5A7270477B49D8316E
:1037F0000860704701460020754A506820F4404038
:103800000843506070470021714A20321170704A9D
:1038100082F82010012802D004280AD104E00121F6
:103820006B4A2032117005E00521694A203211707F
:1038300000E000BF00BF70476949086070476449F5
:10384000096A0143624A1162704765494439086058
:10385000704730B500210022002400235C4D6D68C4
:1038600005F00C0121B1042905D0082923D105E078
:103870005C4D056022E05B4D05601FE0544D6D68B6
:1038800005F47012524D6D6805F48034022505EB85
:1038900092421CB9544D554305600BE04C4D6D6888
:1038A00005F400351DB1504D5543056002E04D4D06
:1038B0005543056002E04B4D056000BF00BF444D1D
:1038C0006D6805F0F0010909484D6B5C0568DD4045
:1038D00045603F4D6D6805F4E061090A434D6B5C3E
:1038E0004568DD4085603A4D6D6805F46051C90A50
:1038F0003E4D6B5C4568DD40C560354D6D6805F437
:103900004041890B3A4D6B5CC568B5FBF3F5056129
:1039100030BD29B12E4A526902432D4B5A6104E051
:103920002B4A526982432A4B5A61704729B1284A6F
:1039300092690243264B9A6104E0254A92698243C8
:10394000234B9A61704729B1214AD2690243204B27
:10395000DA6104E01E4AD26982431D4BDA61704786
:1039600029B11B4AD2680243194BDA6004E0184AB5
:10397000D2688243164BDA60704729B1144A126943
:103980000243134B1A6104E0114A12698243104B3F
:103990001A61704712494039086070470F49C8647E
:1039A00070470B49C87170470948406A40F0807001
:1039B00007494862704701460020054A92680A405C
:1039C0000AB1012000E00020704701498872704769
:1039D000001002400000FFF8FFFFF6FE0000424228
:1039E0008004424200127A0000093D009801002044
:1039F000A801002010B50446FB48844209D10121EA
:103A00008803FFF7ADFF00214FF48040FFF7A8FFC8
:103A100032E0F648844209D101214804FFF7ADFFA6
:103A200000214FF40030FFF7A8FF25E0F048844262
:103A300009D101218804FFF7A0FF00214FF4802065
:103A4000FFF79BFF18E0EB48844209D10121C8042D
:103A5000FFF793FF00214FF40020FFF78EFF0BE0EC
:103A6000E548844208D101210805FFF786FF0021BF
:103A70004FF48010FFF781FF10BD2DE9F04786B0AD
:103A800005460E460024A24600BFA1460027B08985
:103A900000B100BF2F462C8A4CF6FF700440F0881E
:103AA00004432C82AC894EF6F3100440B08831896F
:103AB0000843718908430443AC81AC8A4FF6FF4048
:103AC0000440B0890443AC8201A8FFF7C2FEC64897
:103AD000874202D1DDF810A001E0DDF80CA0A88932
:103AE00000F4004040B10AEBCA0000EB0A10316854
:103AF0004900B0FBF1F807E00AEBCA0000EB0A103E
:103B000031688900B0FBF1F86420B8FBF0F00401E3
:103B10002009642101FB1089A88900F4004040B10C
:103B2000322000EBC900B0FBF1F000F007000443C5
:103B300008E0322000EB09106421B0FBF1F000F046
:103B40000F0004432C8106B0BDE8F0874FF41651F6
:103B5000016000218180C18001810C21418100210F
:103B60008181704710B502460020108A4FF2FF0392
:103B700018400B884C8823438C882343CC882343EC
:103B80001843108210BD0021018041808180C180D6
:103B9000704721B1828942F40052828104E0828917
:103BA0004DF6FF731A4082817047F0B5034600243A
:103BB00000260025002040F66A17B94200D100BF58
:103BC0001846C1F3421401F01F06012707FA06F553
:103BD000012C01D10C3004E0022C01D1103000E0A6
:103BE00014301AB107682F43076002E00768AF433B
:103BF0000760F0BD1AB1838A0B43838202E0838A97
:103C00008B4383827047028A4FF6F0731A40028218
:103C1000028A0A430282704782894FF2FF731A4078
:103C2000828182890A438281704721B1828942F070
:103C30000202828104E082894FF6FD731A4082817C
:103C40007047028A4FF6DF731A400282028A0A43E3
:103C50000282704721B1028A42F48042028204E06B
:103C6000028A4BF6FF731A4002827047C1F30802C2
:103C70008280704701468888C0F3080070478189B8
:103C800041F0010181817047028BD2B20283028B25
:103C900042EA012202837047028B02F47F420283D0
:103CA000028B0A430283704721B1828A42F02002CC
:103CB000828204E0828A4FF6DF731A408282704764
:103CC00021B1828A42F01002828204E0828A4FF699
:103CD000EF731A408282704721B1828A42F0080253
:103CE000828204E0828A4FF6F7731A40828270471C
:103CF00021B1828942F40042828103E08289C2F3C9
:103D00000E028281704721B1828A42F4006282826F
:103D100004E0828A4FF2FF731A4082827047828ADF
:103D20004FF6FB731A408282828A0A43828270476E
:103D300021B1828A42F00202828204E0828A4FF636
:103D4000FD731A408282704702460020B1F5007F61
:103D500000D100BF13880B400BB1012000E0002010
:103D6000704701F40072B2F5007F00D100BFCA4372
:103D70000280704770B50246002400230025002011
:103D800040F66A16B14200D100BFC1F3421501F0FE
:103D90001F03012606FA03F3012D02D19689334051
:103DA00006E0022D02D1168A334001E0968A3340A4
:103DB0000C12012606FA04F41688344013B10CB133
:103DC000012000E0002070BD10B50022002340F665
:103DD0006A14A14200D100BF0A1201249440A3B288
:103DE000DC43048010BD0000003801400044004066
:103DF00000480040004C0040005000403149014361
:103E0000314A1160704770B5002100230F22C47839
:103E100004B32D4C246804F4E064C4F5E064210A82
:103E2000C1F10403CA40447804FA03F184781440D1
:103E300021430901254C0678A155047804F01F059B
:103E40000124AC4005786D11AD0005F1E025C5F801
:103E5000004109E0047804F01F050124AC401C4D2A
:103E60000678761145F8264070BD1A4A0A4002438A
:103E7000154B1B1F1A60704739B1134A121D126887
:103E80000243114B1B1D1A6006E00F4A121D1268F7
:103E900082430D4B1B1D1A607047042808D14FF058
:103EA000E021096941F004014FF0E022116107E0CF
:103EB0004FF0E021096921F004014FF0E022116187
:103EC000704700000000FA050CED00E000E400E09F
:103ED00080E100E080FFFF1F10B50446FE488442E9
:103EE00008D10121C014FFF73BFD0021E014FFF7CA
:103EF00037FDC4E0B4F1804F08D101210846FFF737
:103F00003CFD00210120FFF738FDB8E0F348844272
:103F100008D101210220FFF730FD00210220FFF728
:103F20002CFDACE0EE48844208D101210420FFF7CB
:103F300024FD00210420FFF720FDA0E0E948844291
:103F400008D101210820FFF718FD00210820FFF704
:103F500014FD94E0E448844208D101211020FFF7C9
:103F60000CFD00211020FFF708FD88E0DF488442A7
:103F700008D101212020FFF700FD00212020FFF7BC
:103F8000FCFC7CE0DA48844208D101214014FFF7B0
:103F9000E7FC00216014FFF7E3FC70E0D5488442A1
:103FA00009D10121C804FFF7DBFC00214FF40020F8
:103FB000FFF7D6FC63E0D048844209D1012108050F
:103FC000FFF7CEFC00214FF48010FFF7C9FC56E04C
:103FD000CA48844209D101214805FFF7C1FC0021EC
:103FE0004FF40010FFF7BCFC49E0C548844208D1FB
:103FF00001214020FFF7C1FC00214020FFF7BDFC5C
:104000003DE0C048844208D101218020FFF7B5FC83
:1040100000218020FFF7B1FC31E0BB48844208D189
:1040200001218015FFF7A9FC0021A015FFF7A5FCD1
:1040300025E0B648844209D101210804FFF790FC2D
:1040400000214FF48030FFF78BFC18E0B048844229
:1040500009D101214804FFF783FC00214FF400300F
:10406000FFF77EFC0BE0AB48844208D101218804B5
:10407000FFF776FC00214FF48020FFF771FC10BDA4
:1040800000220288944B98420ED0994B98420BD054
:10409000B0F1804F08D0914B984205D0904B984298
:1040A00002D0904B984204D14FF68F731A404B8840
:1040B0001A438D4B984207D08C4B984204D04FF650
:1040C000FF431A40CB881A4302808B8883850B8874
:1040D0000385814B98420BD0854B984208D08B4B7F
:1040E000984205D08A4B984202D08A4B984201D11F
:1040F0000B7A038601238382704770B50024002267
:104100000023058C4FF6FE7635400584028C8388AB
:10411000048B4FF68F752C40B51E2C400D882C4318
:10412000751E2A400D892A434D882A436A4DA842AC
:104130000BD06F4DA84208D0744DA84205D0744DE5
:10414000A84202D0734DA84213D14FF6F7752A400A
:104150004D892A434FF6FB752A408D882A434FF636
:10416000FF652B404FF6FF552B408D892B43CD89A2
:104170002B4383800483CD888586028470BD70B50F
:10418000002400220023058C4FF6EF76354005848D
:10419000028C8388048B48F6FF752C404FF6FF4550
:1041A0002C400D884FF6FF7606EA05252C434FF686
:1041B000DF752A400D8906EA05152A434D8806EA6F
:1041C00005152A43444DA84202D0494DA8421DD1AD
:1041D0004FF67F752A404D894FF6FF7606EA0515A2
:1041E0002A434FF6BF752A408D8806EA05152A43F3
:1041F0004FF6FF352B404FF2FF752B408D8906EAB5
:1042000085052B43CD8906EA85052B4383800483EE
:10421000CD880587028470BD70B50024002200237C
:10422000058C4FF6FF6635400584028C8388848BAD
:104230004FF68F752C404FF6FC752C400D882C43A3
:104240004FF6FF552A400D894FF6FF7606EA052501
:104250002A434D8806EA05252A431F4DA84202D06D
:10426000234DA8421DD14FF2FF752A404D894FF6CC
:10427000FF7606EA05252A434FF6FF352A408D884A
:1042800006EA05252A434EF6FF752B404DF6FF75CD
:104290002B408D8906EA05152B43CD8906EA0515C5
:1042A0002B4383808483CD888587028470BD70B55D
:1042B000002200230024058C4EF6FF76354005844D
:1042C000038C8488828B48F6FF752A404FF6FF45A1
:1042D0002A400D8820E00000002C0140000400402E
:1042E00000080040000C0040001000400014004096
:1042F00000340140004C0140005001400054014096
:1043000000180040001C0040002000400040014018
:1043100000440140004801404FF6FF7606EA0525BB
:104320002A434DF6FF752B400D8906EA05352B43D0
:104330004D8806EA05352B43FA4DA84202D0FA4DC6
:10434000A84208D14BF6FF752C408D894FF6FF76B9
:1043500006EA85152C4384808283CD88A0F84050DE
:10436000038470BD828B4FF2FF331A408283828BAD
:104370004FF6FF7303EA01231A4382837047F0B5B7
:104380000C461546002200210026078C4EF6FF7CC5
:1043900007EA0C070784828B018C4FF6FF7707EA48
:1043A000043640F6FF473A404FF6FF7707EA052705
:1043B0003A434FF6FF7707EA03373A43D94FB842FB
:1043C0000ED0D94FB8420BD0B0F1804F08D0D74FA4
:1043D000B84205D0D64FB84202D0D64FB84206D127
:1043E0004DF6FF77394046F48057394305E047F6EC
:1043F000FF57394044F48057394382830184F0BD2C
:10440000828B4FF6F3731A408283828B0A43828336
:104410007047F0B50C461546002200210026078C97
:104420004FF6FF6C07EA0C070784828B018C4FF66E
:10443000FF7707EA04264FF60C773A404FF6FF77EE
:1044400007EA03172F433A43B64FB8420ED0B64F90
:10445000B8420BD0B0F1804F08D0B44FB84205D06D
:10446000B34FB84202D0B34FB84206D14FF6FF5710
:10447000394046F48077394305E04FF2FF57394021
:1044800044F48077394382830184F0BD028B4FF27C
:10449000FF331A400283028B4FF6FF7303EA0123B6
:1044A0001A4302837047F0B50C46154600220021DE
:1044B0000026078C4FF6EF7C07EA0C070784028B77
:1044C000018C4FF6FF7707EA041640F6FF473A40A3
:1044D0004FF6FF7707EA03373A434FF6FF7707EACD
:1044E00005273A438F4FB8420ED08F4FB8420BD0BA
:1044F000B0F1804F08D08D4FB84205D08C4FB842F4
:1045000002D08C4FB84206D14FF6DF77394046F0E3
:104510001007394305E04FF65F77394044F0100744
:10452000394302830184F0BD028B4FF6F3731A40C6
:104530000283028B0A4302837047F0B50C4615468E
:1045400000220021068C4FF6FE773E400684028B47
:10455000018C4FF60C7632407E1C06EA03162E4381
:104560003243704EB0420ED06F4EB0420BD0B0F11D
:10457000804F08D06D4EB04205D06D4EB04202D093
:104580006C4EB04206D14FF6FD76314044F0010644
:10459000314305E04FF6F576314044F001063143F2
:1045A00002830184F0BD70B505460C465D48854226
:1045B0000ED05D4885420BD0B5F1804F08D05B48E6
:1045C000854205D05A48854202D05A48854200D1DA
:1045D00000E000BF208850B92389A288618828465E
:1045E000FFF7ABFFE1882846FFF79EFF25E0208814
:1045F00004280AD12389A28861882846FFF753FF3F
:10460000E1882846FFF742FF17E0208808280AD1F2
:104610002389A28861882846FFF7FBFEE1882846A7
:10462000FFF7EEFE09E02389A28861882846FFF79C
:10463000A6FEE1882846FFF795FE70BD2DE9F04102
:1046400005460C4600260127608808B9022600E0CE
:104650000026A088012801D1022700E00127208838
:10466000A0B92389A28861882846FFF766FFE18800
:104670002846FFF759FF23893A4631462846FFF777
:1046800012FFE1882846FFF701FF13E02389A28883
:1046900061882846FFF707FFE1882846FFF7F6FE06
:1046A00023893A4631462846FFF747FFE1882846E6
:1046B000FFF73AFFBDE8F0810A884B881A438B88E0
:1046C0001A43CB881A430B891A434B891A438B89A7
:1046D0001A43A0F8442070474FF6FF7181800021F3
:1046E0000180C180418001727047002101804180BA
:1046F0008180C180018141818181C1817047002118
:1047000001804180012181800021C18001817047A9
:104710000021018041808180C180018141818181AE
:1047200070470000002C01400034014000040040AC
:1047300000080040000C004021B1028842F0010254
:10474000028004E002884FF6FE731A400280704730
:1047500031B1B0F8442042F40042A0F8442005E012
:10476000B0F84420C2F30E02A0F8442070471AB1FA
:1047700083890B43838102E083898B438381704764
:104780008182704741EA0203A0F8483070471AB1AD
:1047900083890B43838102E083898B438381704744
:1047A00001894FF6F8721140018170470A460021D5
:1047B00001894FF68F73194011430181704730B55D
:1047C00004460D4629462046FFF7F0FF208940F0B9
:1047D0000700208130BD2DE9F04104460D46164604
:1047E0001F46602D06D13B46012231462046FFF789
:1047F0005AFE05E03B46012231462046FFF79DFE6A
:1048000029462046FFF7D2FF208940F0070020818B
:10481000BDE8F08130B50C4600210189C9B24FF6E0
:10482000FF7505EA0325154325432943018130BD62
:104830002DE9F04105460E461746984600244346AA
:104840003A4631462846FFF7E5FF2C894FF6F870C7
:10485000044044F007044FF68F70044044F07004A5
:104860002C81BDE8F081F0B504460D4616461F4682
:104870003B46324629462046FFF7CCFF208940F4CC
:1048800080402081F0BD0185828270470A46002168
:1048900001884FF68F731940114301807047F0B5BE
:1048A0000C4615461E460021002200230189028B7A
:1048B000038C4FF6F877394021434FF6FC473A40D6
:1048C00040F201173A434FF6DD773B404FF6FF7752
:1048D00007EA06172F433B43018102830384F0BD9F
:1048E0000A460021018B4FF68F7319401143018353
:1048F00070470A460021018B48F6FF7319404FF6B6
:10490000FF7303EA02231943018370470A4600211B
:10491000818B4FF68F7319401143818370470A468C
:104920000021818B48F6FF7319404FF6FF7303EAAD
:10493000022319438183704721B1028842F080022B
:10494000028004E002884FF67F731A4002807047AD
:1049500021B1828842F00402828004E082884FF60E
:10496000FB731A408280704721B1828842F00802AE
:10497000828004E082884FF6F7731A408280704785
:1049800021B1828842F00102828004E082884FF6E1
:10499000FE731A40828070470A460021018B4FF651
:1049A000F77319401143018370470A460021018BB8
:1049B0004FF2FF7319404FF6FF7303EA02231943C6
:1049C000018370470A460021818B4FF6F773194027
:1049D0001143818370470A460021818B4FF2FF7398
:1049E00019404FF6FF7303EA02231943818370478E
:1049F0000A460021018B4FF6FB73194011430183D6
:104A000070470A460021018B4FF6FF3319404FF6DD
:104A1000FF7303EA02231943018370470A4600210A
:104A2000818B4FF6FB7319401143818370470A460F
:104A30000021818B4FF6FF3319404FF6FF7303EAD5
:104A400002231943818370470A460021018B4FF6E8
:104A50007F7319401143018370470A460021018B7F
:104A6000C1F30E014FF6FF7303EA022319430183DA
:104A700070470A460021818B4FF67F73194011431E
:104A8000818370470A460021818BC1F30E014FF6E6
:104A9000FF7303EA02231943818370470A4600210A
:104AA000018C4FF6FD7319401143018470470A468B
:104AB0000021018C4FF6F7731940114301847047B0
:104AC0000A460021018C4FF6DF7319404FF6FF7341
:104AD00003EA02131943018470470A460021018C3E
:104AE0004FF67F7319404FF6FF7303EA0213194321
:104AF000018470470A460021018C4FF6FF5319408C
:104B00004FF6FF7303EA02231943018470470A46F4
:104B10000021018C4FF2FF7319404FF6FF7303EA37
:104B200002231943018470470A460021018C4DF687
:104B3000FF7319404FF6FF7303EA023319430184F0
:104B4000704730B5002301248C40A3B2048C9C43F1
:104B50000484048C02FA01F5ADB22C43048430BD08
:104B600030B5002304248C40A3B2048C9C430484FD
:104B7000048C02FA01F5ADB22C43048430BD70B54B
:104B80000346002000241846183001258D40ACB2A1
:104B90001D8CA5431D8409B1082909D100EB6100D2
:104BA000056825F0700505600568154305600EE091
:104BB0000D1FC5F34E052844056825F4E045056042
:104BC00005684FF6FF7606EA02263543056070BD9C
:104BD00021B1028842F00202028004E002884FF60E
:104BE000FD731A400280704721B1028842F004022E
:104BF000028004E002884FF6FB731A40028070477F
:104C000021B1828842F08002828004E082884FF6DF
:104C10007F731A408280704702884FF6F7731A40FC
:104C2000028002880A430280704782884FF68F73A1
:104C30001A40828082880A438280704702894FF638
:104C4000F8731A40028102890A430281704702897F
:104C50004FF67F731A40028102890A43028170472E
:104C600081847047818570478186704701877047CE
:104C700081877047A0F84010704702884FF6FF43C5
:104C80001A40028002880A43028070470146888EDB
:104C900070470146088F70470146888F704701466C
:104CA000B1F8400070470146888C70470146088D76
:104CB000704702460020138A0B400BB1012000E030
:104CC00000207047CA430282704730B50246002078
:104CD00000230024158A05EA0103958905EA0104E9
:104CE00013B10CB1012000E0002030BDCA430282A4
:104CF0007047000010B50446FA48844208D10121EB
:104D00004015FEF72DFE00216015FEF729FE17E085
:104D1000F548844208D101210015FEF721FE00214B
:104D20002015FEF71DFE0BE0F048844208D101215A
:104D3000C803FEF715FE00214FF40040FEF710FEF9
:104D400010BD30B50246002000235068E84C2040DA
:104D50000D790C6844EA0524204350609068E54CC6
:104D60002040D1E902542C434D7944EA45042043C4
:104D70009060D06A20F470000C7C641EE4B223437F
:104D800040EA0350D06230BD0021016001714171E1
:104D90008160C16001210174704721B1826842F0D5
:104DA0000102826003E0826822F0010282607047A3
:104DB00021B1826842F48072826003E0826822F44A
:104DC00080728260704710B50023CBB21AB144687C
:104DD0001C43446002E044689C43446010BD816809
:104DE00041F0080181607047014600208A6802F0A6
:104DF00008020AB1012000E000207047816841F0FC
:104E0000040181607047014600208A6802F00402B4
:104E10000AB1012000E00020704721B1826842F40D
:104E2000A002826003E0826822F4A00282607047E0
:104E3000014600208A6802F480020AB1012000E0E5
:104E40000020704710B50A4600210023416821F474
:104E50006041531E41EA4331416010BD21B14268B7
:104E600042F40062426003E0426822F40062426061
:104E70007047F0B504460D4600200021092D11DDD4
:104E8000E068A5F10A0606EB4607072606FA07F1D1
:104E90008843A5F10A0606EB460603FA06F1084325
:104EA000E0600CE0206905EB4507072606FA07F1EC
:104EB000884305EB450603FA06F108432061072AFB
:104EC0000FDA606B561E06EB86071F2606FA07F1FF
:104ED0008843561E06EB860605FA06F10843606312
:104EE00022E00D2A0FDA206BD61F06EB86071F265D
:104EF00006FA07F18843D61F06EB860605FA06F187
:104F00000843206310E0E06AA2F10D0606EB860775
:104F10001F2606FA07F18843A2F10D0606EB860666
:104F200005FA06F10843E062F0BD21B1826842F45F
:104F30008012826003E0826822F4801282607047EF
:104F40000146C86C80B2704766484C3000687047B4
:104F500021B1426842F48062426003E0426822F478
:104F600080624260704721B1426842F480524260E0
:104F700003E0426822F48052426070470A460021F2
:104F8000816821F4E04111438160704721B182685A
:104F900042F40042826003E0826822F400428260B0
:104FA000704721B1826842F40212826003E0826895
:104FB00022F4021282607047014600208A6802F4DF
:104FC00000120AB1012000E000207047F0B504464D
:104FD0001546002000220026092911DDE068A1F114
:104FE0000A0707EB470C072707FA0CF29043A1F1D9
:104FF0000A0707EB470703FA07F21043E0600CE0EB
:10500000206901EB410C072707FA0CF2904301EBF2
:10501000410703FA07F210432061A06BC0F3015669
:10502000EF1C06F1010CA7EB0C0707EB870C1F2701
:1050300007FA0CF29043EF1C06F1010CA7EB0C07EA
:1050400007EB870701FA07F21043A063F0BD10B524
:105050000A4600210023816B21F44011531E41EACE
:105060000351816310BD08B5002300930090009B9D
:105070000B440093009B1A6008BD08B5024600204F
:105080000090009201F12800009B184400900098C5
:10509000006880B208BD0A4600214168164B1940DD
:1050A0001143416070474162826270470A460021A5
:1050B000416821F01F0111434160704740B1094927
:1050C0000831096841F40001064A0832116007E01E
:1050D00004490831096821F40001024A08321160CC
:1050E000704700000024014000280140003C0140BE
:1050F000FFFEF0FFFDF7F1FFFFFD3FFF024600203E
:1051000013680B400BB1012000E000207047CA4338
:105110000260704770B502460020002300240B1285
:105120005568CEB205EA060415681D4015B10CB1EC
:10513000012000E0002070BD00220A12D34303606A
:1051400070470000002044490860091D0860091DDF
:105150000860091D086041483F49143108607047E4
:1051600000213D498279002A3AD00A461268036834
:105170009A430B461A600A1D126803689A430B1D76
:105180001A60027911440A6803681A430A60324AB5
:105190000832126803689A432F4B08331A601A1DAD
:1051A000126803689A432C4B0C331A604279102A18
:1051B0000ED11A1F126803681A43274B08331A606E
:1051C0001A1D126803681A43234B0C331A600DE052
:1051D0002149427911440A6803681A430A6005E0CC
:1051E000027911440A6803689A430A6070470021F3
:1051F000016001710C2141710021817170471649D4
:10520000103109680143144A103211607047014699
:105210000020114A143212680A400AB1012000E04D
:10522000002070470C491431086070470146002087
:105230000022094B1B6803EA0102074B14331B6869
:105240000B4013B10AB1012000E000207047024971
:10525000143108607047000000040140FFFF0F0098
:1052600070B503460C4603E011F8015B03F8015BDF
:10527000151EA2F10106B2B2F6D170BD30B50346DB
:1052800001E003F8011B141EA2F10105AAB2F8D136
:1052900030BD30B502460B464FF6FF70002112E0DC
:1052A000555C684000240AE000F0010525B140107B
:1052B0004AF20105684000E04010651CECB2082C81
:1052C000F2DB4D1CE9B29942EADB30BD2DE9F04139
:1052D000B2B006460D4600242F46A0463A46314657
:1052E0006846FFF7BDFFF94890F8040206286FD220
:1052F000DFE800F06E03162C425800240DE01DF884
:105300000400F349088000BFF148001F008800F046
:1053100040000028F8D0601CC4B2AC42EFDB58E07B
:10532000ECA001F0A3FC00240DE01DF80400ED4901
:10533000088000BFEB48001F008800F040000028F4
:10534000F8D0601CC4B2AC42EFDB42E0E6A001F052
:105350008DFC00240DE01DF80400E749088000BF23
:10536000E548001F008800F040000028F8D0601CCD
:10537000C4B2AC42EFDB2CE0E0A001F077FC0024EB
:105380000DE01DF80400E149088000BFDF48001F60
:10539000008800F040000028F8D0601CC4B2AC4285
:1053A000EFDB16E0DAA001F061FC00240CE01DF850
:1053B0000400DB49888000BFD948008800F0400025
:1053C0000028F9D0601CC4B2AC42F0DB01E0FFE77A
:1053D00000BF00BF32B0BDE8F08110B500231A460F
:1053E0001946184600F001F810BD2DE9FF4FB5B081
:1053F00082460D4693460024002700203390002665
:105400003290C821684601F007F9389800287AD010
:10541000285DFF2806D1601C285CAA2802D1A01CA8
:10542000C4B206E0BFA001F021FC002039B0BDE805
:10543000F08F2046611CCCB22E5C042E04DBBDA094
:1054400001F014FC0020F1E7BD4800F806A04FF081
:10545000000936B1012E08D0022E0AD0032E10D139
:105460000BE0B8A001F002FC0BE0B8A001F0FEFBDD
:1054700007E0B8A001F0FAFB03E0B8A001F0F6FBEA
:1054800000BF00BF4FF0000908E015F80910B5A0F3
:1054900001F0ECFB09F1010000F0FF09D945F4DB54
:1054A000B2A001F0E3FB2879401DC1B22846FFF706
:1054B000F0FE804608F0FF008DF8D0004FEA28206B
:1054C0008DF8D1009DF8D0102879401D285C8142CC
:1054D00006D19DF8D1102879801D285C814204D026
:1054E000A3A001F0C3FB0020A0E72046611CCCB2C2
:1054F000285C3290329838B1022820D0052850D04C
:1055000006287CD193E084E12046611CCCB2285C63
:10551000012801D0002089E72046611CCCB2295C1B
:105520008748801F8155002106EBC60000EB06125C
:105530006648801C00EB820080F8621068E120461B
:10554000611CCCB2285C022801D000206EE7601CF0
:10555000295C06EBC60000EB06125C48801C00EBE1
:1055600082002A5D8154A01CC4B206EBC60000EB89
:1055700006115648801C00EB810090F86200BB28A1
:105580000ED0BB2106EBC60000EB06124F48801C74
:1055900000EB820080F86210314679A001F066FBD2
:1055A00036E14A484078022804DC7BA001F05EFB2B
:1055B00000203BE72046611CCCB2285C012801D0CA
:1055C000002033E77BA001F051FB04203F49087025
:1055D000285D81F80502084690F8051200F5FB7079
:1055E000405C401C394981F80602084690F80502E3
:1055F00081F80702002081F8050201270FE005E18C
:10560000285D00EBC00101EB00113048801C00EB6D
:105610008100C15D4A480B30C155781CC7B22B4888
:1056200090F80602B842EBDCFFF7D7FEF0E067A087
:1056300001F01CFB285D142804DD66A001F016FBB8
:105640000020F3E6601C285C002803DB601C285C5B
:10565000042804DB61A001F009FB0020E6E6601CE1
:105660002E5CA01C285C002803DDA01C285C0428FC
:1056700004DB5CA001F0FAFA0020D7E6E01C285C0D
:10568000002803DDE01C285C042804DB57A001F09F
:10569000EDFA0020CAE62A5D631CE91806EBC60392
:1056A00003EB061C264B6A3B0CEB0300FFF7D8FD0F
:1056B000AA2106EBC60000EB061221486A38104406
:1056C000017531464BA001F0D1FAA1E03020002055
:1056D000043801405553415254325F545950450DDE
:1056E0000A000000044400405553415254335F54B3
:1056F0005950450D0A0000000448004055534152DE
:1057000054345F545950450D0A000000044C0040C9
:105710005553415254355F545950450D0A0000000D
:105720000050004068656164206572726F720D0AF6
:1057300000000000646972206572726F720D0A00C9
:105740002C22002052B6AB3A0000000052C4CF3ADF
:105750000000000052CEF73A0000000052B1B13A0A
:105760000000000025303278200000000D0A000003
:10577000637263206572726F722D2D0D0A00000036
:105780006469723A257820727120636172642066C0
:105790006C61670D0A000000C7EBC7F3B5A5B8F64A
:1057A000B7BDCEBBB5C4CAFDBEDDCEDED0A70D0AE7
:1057B00000000000C7EBC7F3D5FBB8F6B7BDCEBB02
:1057C000B5C4CAFDBEDD0D0A000000003838383807
:1057D0000D0A0000313131310D0A0000323232320F
:1057E0000D0A0000333333330D0A000034343434EF
:1057F0000D0A00006469723A25782072712064698C
:10580000636520666C61670D0A00000000200DE6EC
:10581000BFE0FF222046611CCCB20DF80020AA2276
:105820002146601CC4B20DF8012004222046611CF0
:10583000CCB20DF80020FC4800780B280DD2DFE830
:1058400000F00C060C07080C0C090A0C0B0006E013
:1058500005E004E003E002E001E00020E6E500BF2F
:10586000F14802782046611CCCB20DF80020EE48C9
:1058700090F806222046611CCCB20DF80020EA49BF
:1058800091F806220DEB040001F20721FFF7E8FC76
:10589000E54890F806022044C4B221466846FBF76A
:1058A000E6FF804608F0FF000DF804004FEA2821CB
:1058B000601C0DF80010A01CC4B2DB48007804285E
:1058C0001BD1D94890F8070230B1012808D002282E
:1058D0000AD0032810D10BE0D4A001F0C7F90BE0E7
:1058E000D4A001F0C3F907E0D4A001F0BFF903E0B0
:1058F000D4A001F0BBF900BF1BE0CB4890F8050233
:1059000030B1012808D002280AD0032810D10BE0BA
:10591000C6A001F0ABF90BE0C6A001F0A7F907E0C3
:10592000C6A001F0A3F903E0C6A001F09FF900BFF3
:1059300000BF002707E01DF80710AFF2D81001F0F4
:1059400095F9781CC7B2A742F5DBAFF2E01001F081
:105950008DF9B548007801280ED1002709E0B81C60
:10596000B14981F8040221466846FFF7AFFC781C74
:10597000C7B2042FF3DB0CE0AB4890F8051200F53A
:10598000FE70405CA84981F8040221466846FFF792
:105990009DFC01204AE510B5002400BF0FE0012066
:1059A000A1490870084680F80542012081F80602E6
:1059B000002081F80702FFF710FD601CC4B2042C20
:1059C000EDDB10BD70B5002400259748407806280F
:1059D00070D2DFE800F0031E457099B0002414E097
:1059E0009A48005D78B901208F490870084680F810
:1059F0000542012081F80602002081F80702FFF726
:105A0000ECFC012070BD601CC4B2042CE8DB00205B
:105A1000F8E7002420E03220FBF7DBFE04EBC400B3
:105A200000EB04118048801C00EB810090F86200BC
:105A3000BB280FD008207C490870084680F8054232
:105A4000012081F80602002081F80702FFF7C5FC5B
:105A50000120D7E7601CC4B2042CDCDB0020D1E7B6
:105A6000002423E001251BE004EBC40000EB04113B
:105A70006D48801C00EB8100405D78B903206A49C5
:105A80000870084680F80542012081F806020846A1
:105A900080F80752FFF7A1FC0120B3E7681CC5B2EC
:105AA0006A48005DA842DFDA601CC4B2042CD9DB6E
:105AB0000020A7E740E0002422E04FF47A70FBF7D3
:105AC00088FE04EBC40000EB04116048643808440D
:105AD000007DAA2812D0072053490870002081F8C1
