:020000040800F2
:10000000180800203D020008990600085106000863
:100010009506000871050008370C00080000000074
:10002000000000000000000000000000F1080008CF
:10003000750500080000000029070008090A0008EB
:10004000570200085702000857020008570200082C
:10005000570200085702000857020008570200081C
:10006000570200085702000857020008570200080C
:1000700057020008570200085702000857020008FC
:1000800057020008570200085702000857020008EC
:1000900057020008570200085702000857020008DC
:1000A00057020008570200085702000857020008CC
:1000B00057020008570200085702000857020008BC
:1000C00057020008570200085702000857020008AC
:1000D00057020008750A0008570200085702000876
:1000E000570200085702000857020008570200088C
:1000F000570200085702000857020008570200087C
:10010000570200085702000857020008570200086B
:10011000570200085702000857020008570200085B
:10012000570200085702000857020008570200084B
:10013000570200085702000857020008570200083B
:10014000570200085702000857020008570200082B
:10015000570200085702000857020008570200081B
:10016000570200085702000857020008570200080B
:1001700057020008570200085702000857020008FB
:10018000570200085702000800F002F800F047F894
:100190000AA090E8000C82448344AAF10107DA45E2
:1001A00001D100F03CF8AFF2090EBAE80F0013F0ED
:1001B000010F18BFFB1A43F001031847CC120000CF
:1001C000EC120000103A24BF78C878C1FAD8520760
:1001D00024BF30C830C144BF04680C6070470000C1
:1001E0000023002400250026103A28BF78C1FBD840
:1001F000520728BF30C148BF0B607047642900F028
:10020000A980632900F04981732900F04E81002004
:1002100070471FB501F01AF91FBD10B510BD00F0F1
:1002200077F91146FFF7F5FF01F080F800F095F936
:1002300003B4FFF7F2FF03BC00F0FFFC094880475E
:1002400009480047FEE7FEE7FEE7FEE7FEE7FEE7B8
:10025000FEE7FEE7FEE7FEE704480549054A064BD0
:10026000704700000D0A00088901000818020020EC
:10027000180800201804002018040020704700000F
:100280000FB4044910B503AA029800F013F910BC8A
:100290005DF814FB280000202DE9F0410E460446CD
:1002A000002020622046E168884730B3252805D029
:1002B000D4E901219047206A401CF2E7E16820461A
:1002C00000278847050018D0A5F14100192802D859
:1002D00020354FF400673246294620462760FFF755
:1002E0008DFF40B1012804D0F61D26F00706083620
:1002F000D8E7361DD6E72846DAE7206ABDE8F08160
:1003000070B50C460546012A05D02878800600D530
:10031000EA69002302E0012305E05B1C934202D25C
:10032000E05C0028F9D1A869E618C01AA861286A1B
:10033000184428622846AFF3008004E0D5E9012183
:1003400014F8010B9047B442F8D32846AFF300806D
:1003500070BD00002DE9F0410646002410687529A3
:10036000314616A510D0AFF30080002802DA4042D3
:1003700013A507E031688A0701D512A502E04907F5
:1003800004D511A5012401E0AFF3008000210A2269
:1003900006F1240709E0B0FBF2FCB0FBF2F302FB2C
:1003A0001C00303078541846491C0028F3D12346ED
:1003B0002A463046BDE8F04100F00CB800000000CD
:1003C0002D0000002B000000200000007047704747
:1003D000704770472DE9F0470D469946924604460E
:1003E00000F124080168880604D5E06921F01001B5
:1003F000216000E00120A84201DD471B00E000274A
:10040000A1697A1902EB0900081AA0612078C006D8
:1004100002D42046AFF30080002608E0D4E9012191
:100420001AF806009047206A401C761C20624E4550
:10043000F4DB2078C0060AD52046AFF3008006E042
:10044000D4E9012130209047206A401C2062381EE8
:10045000A7F10107F4DC07E0D4E9012118F8050051
:100460009047206A401C2062281EA5F10105F3DC9C
:100470002046AFF300802078000602D50220BDE8B8
:10048000F0870120FBE710B5436913B1AFF300809B
:1004900001E0FFF735FF012010BD127800F12401C3
:1004A0000A7000224A700122EDE711684FF0FF3216
:1004B000E9E70000074B70B50D467B4400F011F8EA
:1004C0000446284600F020F810B14FF0FF3070BD10
:1004D000204670BD330E000001694A1C0261087895
:1004E000704700B58FB0CDE9013100210591054974
:1004F0007944CDE9031011466846FFF7CDFE0FB0F1
:1005000000BD0000E5FFFFFF007B00F080007047AA
:10051000754600F029F8AE4605006946534620F0BE
:100520000700854618B020B5FFF796FEBDE82040CD
:100530004FF000064FF000074FF000084FF0000B9F
:1005400021F00701AC46ACE8C009ACE8C009ACE852
:10055000C009ACE8C0098D4670470446AFF300807F
:100560002046FFF765FE000000487047B4010020F8
:1005700000BFFEE77047F0B50A46002100230024C3
:1005800000BF3DE0012505FA01F3156805EA030403
:100590009C4234D105684F000326BE40B543056038
:1005A00015794E00B5400668354305601579012D73
:1005B00002D01579022D16D185684F000326BE4062
:1005C000B543856055794E00B540866835438560F2
:1005D000456801268E40B5434560456896798E4052
:1005E000B6B235434560C5684F000326BE40B543EB
:1005F000C560D5794E00B540C6683543C560491C15
:100600001029BFD3F0BDF0B5002300244D07ED0E37
:1006100002FA05F3CE1000F1200555F826504E07DA
:10062000F70E0F26BE40B543CF1000F1200646F866
:100630002750CE1000F1200555F8265045EA030456
:10064000CE1000F1200545F82640F0BD018370472B
:1006500000BFFEE71CB50121202000F0B5F84FF4E3
:10066000C060009001208DF8040000208DF8060085
:1006700003208DF8050001208DF807006946044825
:10068000FFF779FF4FF4C0610148FFF7DFFF1CBDA2
:100690000014024000BFFEE77047000070B5002163
:1006A00000230F22C4781CB3174C246804F4E064C0
:1006B000C4F5E064C4F30721C1F10404E3B20A41C4
:1006C00044789C40E1B28478144021430C07210E09
:1006D0000E4C05786155047804F01F050124AC40E8
:1006E00005786D11AD0005F1E025C5F8004109E080
:1006F000047804F01F050124AC40054D06787611FE
:1007000045F8264070BD00000CED00E000E400E07C
:1007100080E100E002490143024A11607047000095
:100720000000FA050CED00E070472DE9F0410346AA
:100730000C460020D9889D8818E09E7A06B116E004
:1007400014F800C00E464F1CB9B2D3F8008008F868
:1007500006C01E898E4200DC0021461CB0B2A942B0
:1007600001D101269E72904200DB00E0E5E700BF68
:10077000D980BDE8F08101600023C38083800281BD
:1007800083727047F0B503460C460020DD889988D7
:1007900012E000269E720E464F1CB9B2D3F800C07C
:1007A0001CF8066026541E898E4200DC0021461C7F
:1007B000B0B2904200D104E0A942EAD19E7A012E63
:1007C000E7D000BF9980F0BD29B1064A1268024304
:1007D000044B1A6004E0034A12688243014B1A601A
:1007E000704700003038024029B1064A12680243BF
:1007F000044B1A6004E0034A12688243014B1A60FA
:100800007047000044380240F0B500210022002467
:10081000022500260223324F3F6807F00C0121B168
:10082000042905D0082937D105E02E4F076036E0AE
:100830002D4F076033E02A4F3F1F3F68C7F38056B4
:10084000274F3F1F3F6807F03F036EB1264FB7FBAE
:10085000F3F7DFF88CC0ACF1040CDCF800C0CCF38B
:10086000881C07FB0CF40CE01E4FB7FBF3F7DFF816
:1008700070C0ACF1040CDCF800C0CCF3881C07FBA2
:100880000CF4174F3F1F3F68C7F301477F1C7D00E3
:10089000B4FBF5F7076002E0124F076000BF00BF2E
:1008A0000F4F3F6807F0F0010909104F7A5C0768A5
:1008B000D74047600A4F3F6807F4E051890A0B4F61
:1008C0007A5C4768D7408760054F3F6807F460410E
:1008D000490B064F7A5C4768D740C760F0BD0000FF
:1008E000083802400024F40000127A002E00002094
:1008F000704700000CB5002001900090344800685B
:1009000040F480303249086000BF3148006800F48C
:10091000003000900198401C0190009818B901988F
:10092000B0F5A04FF1D12A48006800F4003010B1B2
:100930000120009001E0002000900098012846D19D
:1009400023484030006840F0805021494031086021
:100950002048006840F440401E4908601C480830A8
:1009600000681B49083108600846006840F40040F0
:1009700008600846006840F4A05008601648091F47
:100980000860081F006840F08070091F086000BF01
:100990000F48006800F000700028F9D040F20570A0
:1009A0000E4908600A480830006820F00300084932
:1009B000083108600846006840F00200086000BF87
:1009C00003480830006800F00C000828F8D10CBD7E
:1009D000003802400070004008544007003C0240CC
:1009E000042808D14FF0E021096941F004014FF0DB
:1009F000E022116107E04FF0E021096921F00401D4
:100A00004FF0E022116170477047000010B51548A3
:100A1000006840F47000134908601348006840F013
:100A200001001149086000200F49083108600E4894
:100A300000680E4908400C4908600D48091D08600F
:100A4000081F006820F48020091F08600020064964
:100A50000C310860FFF74EFF4FF00060014980390C
:100A6000086010BD88ED00E000380240FFFFF6FE90
:100A70001030002408B540F22551074800F01CF85A
:100A800048B1054800F0D2F8C0B200900122694692
:100A90000248FFF74AFE08BD00100140C0000020D8
:100AA00021B1828942F40052828104E082894DF6AC
:100AB000FF731A408281704770B5024600240023FC
:100AC0000025002040F66A16B14200D100BFC1F3F4
:100AD000421501F01F03012606FA03F3012D02D18E
:100AE0009689334006E0022D02D1168A334001E098
:100AF000968A33400C12012606FA04F41688344014
:100B000013B10CB1012000E0002070BDF0B5034628
:100B1000002400260025002040F66A17B94200D1C3
:100B200000BF1846C1F3421401F01F06012707FA5F
:100B300006F5012C01D10C3004E0022C01D110305B
:100B400000E014301AB107682F43076002E007681D
:100B5000AF430760F0BD00002DE9FF4705460E4694
:100B60000024A14600BFA046B08900B100BF2C8A76
:100B700024F44054F08804432C82AC8941F20C6088
:100B80008443B08831890843718908430443AC81A8
:100B9000AC8A24F44074B0890443AC826846FFF701
:100BA00033FE2048854202D01F48854202D1DDF83D
:100BB0000C9001E0DDF80890A88900F4004040B1F5
:100BC00009EBC90000EB091031684900B0FBF1F7EF
:100BD00007E009EBC90000EB091031688900B0FBA0
:100BE000F1F76420B7FBF0F004012009642101FB58
:100BF0001078A88900F4004040B1322000EBC80012
:100C0000B0FBF1F000F00700044308E0322000EBF5
:100C100008106421B0FBF1F000F00F0004432C81B8
:100C2000BDE8FF870010014000140140014688889C
:100C3000C0F30800704700BFFEE7014600BF7047E1
:100C40002DE9FC4781460F4600264D46002431E041
:100C5000287828280DD0287820280AD028783A2803
:100C600007D015F8012B3046711C8EB271490A5419
:100C70001EE02878282805D100206E49673981F8C0
:100C8000D4001AE028783A2807D14FF00108012053
:100C90006849673981F8D4000FE02878202807D107
:100CA0004FF0020801206349673981F8D40004E05D
:100CB000601C84B2781EA042CADC00BF781EA0422D
:100CC0001DD1002418E000223046711C8EB2594913
:100CD0000A54594850F82410564800F087FA48B989
:100CE00001205449673981F8D40081F8D5400020AB
:100CF000BDE8FC87601C84B2032CE4D397E000229B
:100D00003046711C8EB24B490A54673981F88060B5
:100D1000084690F8D400002840D001287DD1B8F1D1
:100D2000010F0FD16D1CB81BC1B205230F2228463D
:100D300000F086F9D8B100203E49673981F881007A
:100D40000120D5E7B8F1020F11D1344608E0287828
:100D5000202800D006E06D1C701C86B2601C84B296
:100D6000BC42F4DB00BFBE4201D00120C0E700243A
:100D700011E0314850F824102E4800F037FA40B9FD
:100D800001202C49673981F8D40081F8D540002032
:100D9000AEE7601C84B2032CEBD347E0002440E0B4
:100DA000264800EBC4004168224800F01FFAA8BBA7
:100DB000204967394C706D1C701C86B22878292830
:100DC0001CD16D1C701C86B234460AE0287820289D
:100DD00002D0287800B106E06D1C701C86B2601C41
:100DE00084B2BC42F2DB00BFBE4201D001207FE7EB
:100DF00000201049673981F8810079E705200F212B
:100E0000CDE90010B81BC1B20A4B1A335A1C284650
:100E100000F0BEF810B900206AE705E0FFE7601CAB
:100E200084B2032CBCD301E0012061E700BF0120A4
:100E30005EE70000330100201800002000000020C1
:100E400070B54948447890F8D40010B1012871D1A8
:100E500071E04548017845A0FFF712FA4248007852
:100E6000401EA04200DA70BD3F4890F8CD00012836
:100E700003D100203C49C1F8D0003B4890F88100E4
:100E8000052848D2DFE800F0030E1C2937003EA0F9
:100E9000FFF7F6F93449D1F8D81051F834008047FB
:100EA000064639E039A0FFF7EBF92F4AD2F8D820EF
:100EB00052F834102C4A92F88200884706462BE0FC
:100EC000294BD3F8D83053F83420274B93F891109E
:100ED00093F88200904706461EE02348D0F8D800D9
:100EE00050F83430204AA032A2F10F01A1F10F00D6
:100EF0009847064610E01C48D0F8D80050F8345007
:100F0000194BAF33A3F10F02A2F10F01A1F10F00B2
:100F1000A847064600E000BF00BF134890F8CD0088
:100F2000012806D11048D0F8D00040420E49C1F83F
:100F3000D00016E014E00C4890F8D50020B101284C
:100F400005D0022809D105E000F078F906E000F0AC
:100F50005FF903E000F086F900E000BF00BF00E0A9
:100F600000BF00BF00BF7EE7CC0000207374436F5A
:100F70006E736F6C654465762E66756E634E756D27
:100F80003A25640D0A000000300D0A00310D0A00F8
:100F90002DE9F04F04460D461646DDE90989002784
:100FA00000220021B4468A4600BF44E020782C2865
:100FB0000ED0207829280BD0207848B114F8010BE6
:100FC000C1EB011B93440CF80B00501CC2B230E083
:100FD00020782C2802D02078292821D1207829288F
:100FE0000BD1BAF1000F02D14FF0010A05E0BAF1BE
:100FF000010F02D10120BDE8F08F424501DB012045
:10100000F9E70020C1EB011B93440CF80B00002210
:10101000481CC1B2494501DD0120ECE7641C08E031
:10102000207830B9012902DB19700020E3E70120A4
:10103000E1E7781CC7B2AF42B8DB0020DBE7000075
:101040002DE9F04304460D4616461F4600210023B5
:1010500022460120DFF8A4C08CF8810000BF49E0DF
:10106000505C20282AD1481C105C202826D0481C1F
:10107000105C18B34FF00008204890F88100401E23
:10108000C0EB001C1D4882300CEB0009184603F130
:10109000010C0CF0FF0309F800800023174890F8BA
:1010A0008100401CDFF854C08CF88100604690F845
:1010B0008100B84202DD0120BDE8F083505C2028A9
:1010C00016D0505CA0B112F801800C4890F8810055
:1010D000401EC0EB001C094882300CEB00099C4606
:1010E000581CC3B209F80C80B34201DD0120E3E7CC
:1010F000481CC1B2A942B3DB0020DDE7CC000020D0
:1011000010B509480949C1F8E0000948C1F8E400F0
:10111000032008700748C1F8D80080220649074814
:10112000FFF729FB10BD0000410C0008CC00002097
:10113000410E00080000002040000020C0000020F8
:1011400070B5284890F86600C0F1640082B2254866
:1011500090F86630801C19182348FFF713FB0546EA
:10116000002D3ED01F4890F8660028441D4981F8A4
:101170006600084690F86600642832D0084690F869
:10118000660002282DDB084690F86600801E891C48
:10119000085C0D2825D1881E90F86600401E085C6A
:1011A0000A281ED1881E90F86600401E891E81F80C
:1011B00066000022084690F86600401E891C0A540A
:1011C000881E90F86610D0F8E020801C90470446F6
:1011D0001CB90449D1F8E40080470020014981F896
:1011E000660070BDCC000020C000002030B5024673
:1011F0000B461C46114605E0087808B9002030BDB2
:10120000491C641C08782578A842F5D00120F6E72F
:1012100070B50325002407E0054800EBC4004168D1
:1012200004A0FFF72DF8641CAC42F5DB70BD000094
:101230000000002025730D0A0000000070B5032592
:10124000002406E0044850F8241004A0FFF718F822
:10125000641CAC42F6DB70BD1800002025730D0A3B
:101260000000000010B5002409E0C4EB04110B4895
:101270000A18611C0AA0FFF703F8601CC4B20748F3
:10128000823890F88100A042EFDC002003498239C7
:1012900081F8810004A0FEF7F3FF10BD4E0100208D
:1012A00025643A25730D0A0074696D652E2E0D0AAA
:1012B0000000000010B504466FF00400FFF790FB3B
:1012C000E11704EB5171C1F3C701074A11701046D1
:1012D000007800EB4001C1EBC0104FF6FF7101EA4E
:1012E000C0000249088010BD240000202600002014
:1012F00000BF054A128802F04002002AF9D0C2B2AB
:10130000014B9A80704700000010014010B5044660
:10131000214602A0FEF7B4FF002010BD6C65645F9B
:101320007365745F5F3A25630D0A000000BF4FF4D8
:10133000A060FFF7EFF9A820FFF7BCFF4FF4E13002
:1013400000F02EF8FFF786F9FFF7DAFE03A0FEF7AC
:1013500097FF01E0FFF7F4FEFCE7000068656C6CA6
:101360006F0D0A0070B504460D462A46214602A0BC
:10137000FEF786FF002070BD706C61795F5F3A25D3
:10138000632C25630D0A000010B502A0FEF778FF5C
:1013900010BD000073686F77315F5F0D0A000000B9
:1013A00010B588B0044601210846FFF70DFA012167
:1013B0001020FFF719FA072209212248FFF723F925
:1013C00007220A211F48FFF71EF94FF4C06006905C
:1013D00002208DF81C008DF81D0000208DF81E00E5
:1013E00001208DF81F0006A91648FFF7C4F80294E3
:1013F0000020ADF80C00ADF80E00ADF81000ADF80F
:1014000014000C20ADF8120002A90F48FFF7A4FB4E
:1014100001210D48FFF744FB012240F225510A4803
:10142000FFF774FB25208DF8040003208DF80500DC
:101430008DF8060001208DF8070001A8FFF72EF9AE
:1014400008B010BD00000240001001404FF0407095
:10145000E1EE100A7047000073686F77315F5F003C
:101460006C65645F7365745F5F00000070616C7928
:101470005F5F000072756E74696D65006C730000CB
:101480006C69737400000000A814000800000020BC
:1014900040000000C4010008E814000840000020DB
:1014A000D8070000E001000889130008581400085C
:1014B0000D13000860140008651300086C14000880
:1014C0007C14000880140008741400080000000058
:1014D00000000000000000000000010203040102FF
:0814E0000304060708090000DF
:040000050800018965
:00000001FF
